{"abi":[{"inputs":[{"internalType":"uint256","name":"min","type":"uint256"},{"internalType":"address","name":"creator","type":"address"}],"stateMutability":"nonpayable","type":"constructor"},{"inputs":[],"name":"Numofapprovers","outputs":[{"internalType":"uint256","name":"","type":"uint256"}],"stateMutability":"view","type":"function"},{"inputs":[],"name":"SummariseCampaign","outputs":[{"internalType":"uint256","name":"","type":"uint256"},{"internalType":"uint256","name":"","type":"uint256"},{"internalType":"uint256","name":"","type":"uint256"},{"internalType":"uint256","name":"","type":"uint256"},{"internalType":"address","name":"","type":"address"}],"stateMutability":"view","type":"function"},{"inputs":[{"internalType":"uint256","name":"index","type":"uint256"}],"name":"approveRequest","outputs":[],"stateMutability":"nonpayable","type":"function"},{"inputs":[],"name":"contribute","outputs":[],"stateMutability":"payable","type":"function"},{"inputs":[{"internalType":"string","name":"desc","type":"string"},{"internalType":"uint256","name":"val","type":"uint256"},{"internalType":"address payable","name":"rec","type":"address"}],"name":"createRequest","outputs":[],"stateMutability":"nonpayable","type":"function"},{"inputs":[{"internalType":"uint256","name":"index","type":"uint256"}],"name":"finalizeRequest","outputs":[],"stateMutability":"payable","type":"function"},{"inputs":[],"name":"getNumRequests","outputs":[{"internalType":"uint256","name":"","type":"uint256"}],"stateMutability":"view","type":"function"},{"inputs":[{"internalType":"uint256","name":"index","type":"uint256"}],"name":"hasAlreadyApproved","outputs":[{"internalType":"bool","name":"","type":"bool"}],"stateMutability":"view","type":"function"},{"inputs":[{"internalType":"address","name":"approver","type":"address"}],"name":"isContributor","outputs":[{"internalType":"bool","name":"","type":"bool"}],"stateMutability":"view","type":"function"},{"inputs":[],"name":"manager","outputs":[{"internalType":"address","name":"","type":"address"}],"stateMutability":"view","type":"function"},{"inputs":[{"internalType":"uint256","name":"","type":"uint256"}],"name":"requests","outputs":[{"internalType":"string","name":"description","type":"string"},{"internalType":"uint256","name":"value","type":"uint256"},{"internalType":"address payable","name":"recipient","type":"address"},{"internalType":"bool","name":"complete","type":"bool"},{"internalType":"uint256","name":"Numberofapprovals","type":"uint256"}],"stateMutability":"view","type":"function"}],"devdoc":{"kind":"dev","methods":{},"version":1},"evm":{"assembly":"    /* \"Campaigns.sol\":580:3258  contract Campaign {... */\n  mstore(0x40, 0x80)\n    /* \"Campaigns.sol\":1032:1168  constructor(uint min, address creator) {... */\n  callvalue\n  dup1\n  iszero\n  tag_1\n  jumpi\n  0x00\n  dup1\n  revert\ntag_1:\n  pop\n  mload(0x40)\n  sub(codesize, bytecodeSize)\n  dup1\n  bytecodeSize\n  dup4\n  codecopy\n  dup2\n  dup2\n  add\n  0x40\n  mstore\n  dup2\n  add\n  swap1\n  tag_2\n  swap2\n  swap1\n  tag_3\n  jump\t// in\ntag_2:\n    /* \"Campaigns.sol\":1100:1103  min */\n  dup2\n    /* \"Campaigns.sol\":1082:1097  minContribution */\n  0x04\n    /* \"Campaigns.sol\":1082:1103  minContribution = min */\n  dup2\n  swap1\n  sstore\n  pop\n    /* \"Campaigns.sol\":1124:1131  creator */\n  dup1\n    /* \"Campaigns.sol\":1114:1121  manager */\n  0x03\n  0x00\n    /* \"Campaigns.sol\":1114:1131  manager = creator */\n  0x0100\n  exp\n  dup2\n  sload\n  dup2\n  0xffffffffffffffffffffffffffffffffffffffff\n  mul\n  not\n  and\n  swap1\n  dup4\n  0xffffffffffffffffffffffffffffffffffffffff\n  and\n  mul\n  or\n  swap1\n  sstore\n  pop\n    /* \"Campaigns.sol\":1159:1160  0 */\n  0x00\n    /* \"Campaigns.sol\":1142:1156  Numofapprovers */\n  dup1\n    /* \"Campaigns.sol\":1142:1160  Numofapprovers = 0 */\n  dup2\n  swap1\n  sstore\n  pop\n    /* \"Campaigns.sol\":1032:1168  constructor(uint min, address creator) {... */\n  pop\n  pop\n    /* \"Campaigns.sol\":580:3258  contract Campaign {... */\n  jump(tag_6)\n    /* \"#utility.yul\":88:205   */\ntag_8:\n    /* \"#utility.yul\":197:198   */\n  0x00\n    /* \"#utility.yul\":194:195   */\n  dup1\n    /* \"#utility.yul\":187:199   */\n  revert\n    /* \"#utility.yul\":334:411   */\ntag_10:\n    /* \"#utility.yul\":371:378   */\n  0x00\n    /* \"#utility.yul\":400:405   */\n  dup2\n    /* \"#utility.yul\":389:405   */\n  swap1\n  pop\n    /* \"#utility.yul\":334:411   */\n  swap2\n  swap1\n  pop\n  jump\t// out\n    /* \"#utility.yul\":417:539   */\ntag_11:\n    /* \"#utility.yul\":490:514   */\n  tag_23\n    /* \"#utility.yul\":508:513   */\n  dup2\n    /* \"#utility.yul\":490:514   */\n  tag_10\n  jump\t// in\ntag_23:\n    /* \"#utility.yul\":483:488   */\n  dup2\n    /* \"#utility.yul\":480:515   */\n  eq\n    /* \"#utility.yul\":470:533   */\n  tag_24\n  jumpi\n    /* \"#utility.yul\":529:530   */\n  0x00\n    /* \"#utility.yul\":526:527   */\n  dup1\n    /* \"#utility.yul\":519:531   */\n  revert\n    /* \"#utility.yul\":470:533   */\ntag_24:\n    /* \"#utility.yul\":417:539   */\n  pop\n  jump\t// out\n    /* \"#utility.yul\":545:688   */\ntag_12:\n    /* \"#utility.yul\":602:607   */\n  0x00\n    /* \"#utility.yul\":633:639   */\n  dup2\n    /* \"#utility.yul\":627:640   */\n  mload\n    /* \"#utility.yul\":618:640   */\n  swap1\n  pop\n    /* \"#utility.yul\":649:682   */\n  tag_26\n    /* \"#utility.yul\":676:681   */\n  dup2\n    /* \"#utility.yul\":649:682   */\n  tag_11\n  jump\t// in\ntag_26:\n    /* \"#utility.yul\":545:688   */\n  swap3\n  swap2\n  pop\n  pop\n  jump\t// out\n    /* \"#utility.yul\":694:820   */\ntag_13:\n    /* \"#utility.yul\":731:738   */\n  0x00\n    /* \"#utility.yul\":771:813   */\n  0xffffffffffffffffffffffffffffffffffffffff\n    /* \"#utility.yul\":764:769   */\n  dup3\n    /* \"#utility.yul\":760:814   */\n  and\n    /* \"#utility.yul\":749:814   */\n  swap1\n  pop\n    /* \"#utility.yul\":694:820   */\n  swap2\n  swap1\n  pop\n  jump\t// out\n    /* \"#utility.yul\":826:922   */\ntag_14:\n    /* \"#utility.yul\":863:870   */\n  0x00\n    /* \"#utility.yul\":892:916   */\n  tag_29\n    /* \"#utility.yul\":910:915   */\n  dup3\n    /* \"#utility.yul\":892:916   */\n  tag_13\n  jump\t// in\ntag_29:\n    /* \"#utility.yul\":881:916   */\n  swap1\n  pop\n    /* \"#utility.yul\":826:922   */\n  swap2\n  swap1\n  pop\n  jump\t// out\n    /* \"#utility.yul\":928:1050   */\ntag_15:\n    /* \"#utility.yul\":1001:1025   */\n  tag_31\n    /* \"#utility.yul\":1019:1024   */\n  dup2\n    /* \"#utility.yul\":1001:1025   */\n  tag_14\n  jump\t// in\ntag_31:\n    /* \"#utility.yul\":994:999   */\n  dup2\n    /* \"#utility.yul\":991:1026   */\n  eq\n    /* \"#utility.yul\":981:1044   */\n  tag_32\n  jumpi\n    /* \"#utility.yul\":1040:1041   */\n  0x00\n    /* \"#utility.yul\":1037:1038   */\n  dup1\n    /* \"#utility.yul\":1030:1042   */\n  revert\n    /* \"#utility.yul\":981:1044   */\ntag_32:\n    /* \"#utility.yul\":928:1050   */\n  pop\n  jump\t// out\n    /* \"#utility.yul\":1056:1199   */\ntag_16:\n    /* \"#utility.yul\":1113:1118   */\n  0x00\n    /* \"#utility.yul\":1144:1150   */\n  dup2\n    /* \"#utility.yul\":1138:1151   */\n  mload\n    /* \"#utility.yul\":1129:1151   */\n  swap1\n  pop\n    /* \"#utility.yul\":1160:1193   */\n  tag_34\n    /* \"#utility.yul\":1187:1192   */\n  dup2\n    /* \"#utility.yul\":1160:1193   */\n  tag_15\n  jump\t// in\ntag_34:\n    /* \"#utility.yul\":1056:1199   */\n  swap3\n  swap2\n  pop\n  pop\n  jump\t// out\n    /* \"#utility.yul\":1205:1712   */\ntag_3:\n    /* \"#utility.yul\":1284:1290   */\n  0x00\n    /* \"#utility.yul\":1292:1298   */\n  dup1\n    /* \"#utility.yul\":1341:1343   */\n  0x40\n    /* \"#utility.yul\":1329:1338   */\n  dup4\n    /* \"#utility.yul\":1320:1327   */\n  dup6\n    /* \"#utility.yul\":1316:1339   */\n  sub\n    /* \"#utility.yul\":1312:1344   */\n  slt\n    /* \"#utility.yul\":1309:1428   */\n  iszero\n  tag_36\n  jumpi\n    /* \"#utility.yul\":1347:1426   */\n  tag_37\n  tag_8\n  jump\t// in\ntag_37:\n    /* \"#utility.yul\":1309:1428   */\ntag_36:\n    /* \"#utility.yul\":1467:1468   */\n  0x00\n    /* \"#utility.yul\":1492:1556   */\n  tag_38\n    /* \"#utility.yul\":1548:1555   */\n  dup6\n    /* \"#utility.yul\":1539:1545   */\n  dup3\n    /* \"#utility.yul\":1528:1537   */\n  dup7\n    /* \"#utility.yul\":1524:1546   */\n  add\n    /* \"#utility.yul\":1492:1556   */\n  tag_12\n  jump\t// in\ntag_38:\n    /* \"#utility.yul\":1482:1556   */\n  swap3\n  pop\n    /* \"#utility.yul\":1438:1566   */\n  pop\n    /* \"#utility.yul\":1605:1607   */\n  0x20\n    /* \"#utility.yul\":1631:1695   */\n  tag_39\n    /* \"#utility.yul\":1687:1694   */\n  dup6\n    /* \"#utility.yul\":1678:1684   */\n  dup3\n    /* \"#utility.yul\":1667:1676   */\n  dup7\n    /* \"#utility.yul\":1663:1685   */\n  add\n    /* \"#utility.yul\":1631:1695   */\n  tag_16\n  jump\t// in\ntag_39:\n    /* \"#utility.yul\":1621:1695   */\n  swap2\n  pop\n    /* \"#utility.yul\":1576:1705   */\n  pop\n    /* \"#utility.yul\":1205:1712   */\n  swap3\n  pop\n  swap3\n  swap1\n  pop\n  jump\t// out\n    /* \"Campaigns.sol\":580:3258  contract Campaign {... */\ntag_6:\n  dataSize(sub_0)\n  dup1\n  dataOffset(sub_0)\n  0x00\n  codecopy\n  0x00\n  return\nstop\n\nsub_0: assembly {\n        /* \"Campaigns.sol\":580:3258  contract Campaign {... */\n      mstore(0x40, 0x80)\n      jumpi(tag_1, lt(calldatasize, 0x04))\n      shr(0xe0, calldataload(0x00))\n      dup1\n      0x81d12c58\n      gt\n      tag_13\n      jumpi\n      dup1\n      0x81d12c58\n      eq\n      tag_7\n      jumpi\n      dup1\n      0x8a9cfd55\n      eq\n      tag_8\n      jumpi\n      dup1\n      0xbb54f1b5\n      eq\n      tag_9\n      jumpi\n      dup1\n      0xd7bb99ba\n      eq\n      tag_10\n      jumpi\n      dup1\n      0xd7d1bbdb\n      eq\n      tag_11\n      jumpi\n      dup1\n      0xeda6eb6c\n      eq\n      tag_12\n      jumpi\n      jump(tag_1)\n    tag_13:\n      dup1\n      0x03441006\n      eq\n      tag_2\n      jumpi\n      dup1\n      0x1d0d35f5\n      eq\n      tag_3\n      jumpi\n      dup1\n      0x3e610fa6\n      eq\n      tag_4\n      jumpi\n      dup1\n      0x481c6a75\n      eq\n      tag_5\n      jumpi\n      dup1\n      0x4b8cd041\n      eq\n      tag_6\n      jumpi\n    tag_1:\n      0x00\n      dup1\n      revert\n        /* \"Campaigns.sol\":2244:2533  function finalizeRequest(uint index) public payable isManager {... */\n    tag_2:\n      tag_14\n      0x04\n      dup1\n      calldatasize\n      sub\n      dup2\n      add\n      swap1\n      tag_15\n      swap2\n      swap1\n      tag_16\n      jump\t// in\n    tag_15:\n      tag_17\n      jump\t// in\n    tag_14:\n      stop\n        /* \"Campaigns.sol\":2844:2971  function isContributor(address approver)external view returns (bool)... */\n    tag_3:\n      callvalue\n      dup1\n      iszero\n      tag_18\n      jumpi\n      0x00\n      dup1\n      revert\n    tag_18:\n      pop\n      tag_19\n      0x04\n      dup1\n      calldatasize\n      sub\n      dup2\n      add\n      swap1\n      tag_20\n      swap2\n      swap1\n      tag_21\n      jump\t// in\n    tag_20:\n      tag_22\n      jump\t// in\n    tag_19:\n      mload(0x40)\n      tag_23\n      swap2\n      swap1\n      tag_24\n      jump\t// in\n    tag_23:\n      mload(0x40)\n      dup1\n      swap2\n      sub\n      swap1\n      return\n        /* \"Campaigns.sol\":822:848  uint public Numofapprovers */\n    tag_4:\n      callvalue\n      dup1\n      iszero\n      tag_25\n      jumpi\n      0x00\n      dup1\n      revert\n    tag_25:\n      pop\n      tag_26\n      tag_27\n      jump\t// in\n    tag_26:\n      mload(0x40)\n      tag_28\n      swap2\n      swap1\n      tag_29\n      jump\t// in\n    tag_28:\n      mload(0x40)\n      dup1\n      swap2\n      sub\n      swap1\n      return\n        /* \"Campaigns.sol\":925:947  address public manager */\n    tag_5:\n      callvalue\n      dup1\n      iszero\n      tag_30\n      jumpi\n      0x00\n      dup1\n      revert\n    tag_30:\n      pop\n      tag_31\n      tag_32\n      jump\t// in\n    tag_31:\n      mload(0x40)\n      tag_33\n      swap2\n      swap1\n      tag_34\n      jump\t// in\n    tag_33:\n      mload(0x40)\n      dup1\n      swap2\n      sub\n      swap1\n      return\n        /* \"Campaigns.sol\":3165:3255  function getNumRequests() public view returns (uint) {... */\n    tag_6:\n      callvalue\n      dup1\n      iszero\n      tag_35\n      jumpi\n      0x00\n      dup1\n      revert\n    tag_35:\n      pop\n      tag_36\n      tag_37\n      jump\t// in\n    tag_36:\n      mload(0x40)\n      tag_38\n      swap2\n      swap1\n      tag_29\n      jump\t// in\n    tag_38:\n      mload(0x40)\n      dup1\n      swap2\n      sub\n      swap1\n      return\n        /* \"Campaigns.sol\":878:918  mapping(uint => Request) public requests */\n    tag_7:\n      callvalue\n      dup1\n      iszero\n      tag_39\n      jumpi\n      0x00\n      dup1\n      revert\n    tag_39:\n      pop\n      tag_40\n      0x04\n      dup1\n      calldatasize\n      sub\n      dup2\n      add\n      swap1\n      tag_41\n      swap2\n      swap1\n      tag_16\n      jump\t// in\n    tag_41:\n      tag_42\n      jump\t// in\n    tag_40:\n      mload(0x40)\n      tag_43\n      swap6\n      swap5\n      swap4\n      swap3\n      swap2\n      swap1\n      tag_44\n      jump\t// in\n    tag_43:\n      mload(0x40)\n      dup1\n      swap2\n      sub\n      swap1\n      return\n        /* \"Campaigns.sol\":1556:1889  function createRequest(... */\n    tag_8:\n      callvalue\n      dup1\n      iszero\n      tag_45\n      jumpi\n      0x00\n      dup1\n      revert\n    tag_45:\n      pop\n      tag_46\n      0x04\n      dup1\n      calldatasize\n      sub\n      dup2\n      add\n      swap1\n      tag_47\n      swap2\n      swap1\n      tag_48\n      jump\t// in\n    tag_47:\n      tag_49\n      jump\t// in\n    tag_46:\n      stop\n        /* \"Campaigns.sol\":2541:2836  function SummariseCampaign()... */\n    tag_9:\n      callvalue\n      dup1\n      iszero\n      tag_50\n      jumpi\n      0x00\n      dup1\n      revert\n    tag_50:\n      pop\n      tag_51\n      tag_52\n      jump\t// in\n    tag_51:\n      mload(0x40)\n      tag_53\n      swap6\n      swap5\n      swap4\n      swap3\n      swap2\n      swap1\n      tag_54\n      jump\t// in\n    tag_53:\n      mload(0x40)\n      dup1\n      swap2\n      sub\n      swap1\n      return\n        /* \"Campaigns.sol\":1362:1548  function contribute() public payable restriction {... */\n    tag_10:\n      tag_55\n      tag_56\n      jump\t// in\n    tag_55:\n      stop\n        /* \"Campaigns.sol\":1897:2236  function approveRequest(uint index) public {... */\n    tag_11:\n      callvalue\n      dup1\n      iszero\n      tag_57\n      jumpi\n      0x00\n      dup1\n      revert\n    tag_57:\n      pop\n      tag_58\n      0x04\n      dup1\n      calldatasize\n      sub\n      dup2\n      add\n      swap1\n      tag_59\n      swap2\n      swap1\n      tag_16\n      jump\t// in\n    tag_59:\n      tag_60\n      jump\t// in\n    tag_58:\n      stop\n        /* \"Campaigns.sol\":2979:3155  function hasAlreadyApproved(uint index) public view returns (bool) {... */\n    tag_12:\n      callvalue\n      dup1\n      iszero\n      tag_61\n      jumpi\n      0x00\n      dup1\n      revert\n    tag_61:\n      pop\n      tag_62\n      0x04\n      dup1\n      calldatasize\n      sub\n      dup2\n      add\n      swap1\n      tag_63\n      swap2\n      swap1\n      tag_16\n      jump\t// in\n    tag_63:\n      tag_64\n      jump\t// in\n    tag_62:\n      mload(0x40)\n      tag_65\n      swap2\n      swap1\n      tag_24\n      jump\t// in\n    tag_65:\n      mload(0x40)\n      dup1\n      swap2\n      sub\n      swap1\n      return\n        /* \"Campaigns.sol\":2244:2533  function finalizeRequest(uint index) public payable isManager {... */\n    tag_17:\n        /* \"Campaigns.sol\":1326:1333  manager */\n      0x03\n      0x00\n      swap1\n      sload\n      swap1\n      0x0100\n      exp\n      swap1\n      div\n      0xffffffffffffffffffffffffffffffffffffffff\n      and\n        /* \"Campaigns.sol\":1312:1333  msg.sender == manager */\n      0xffffffffffffffffffffffffffffffffffffffff\n      and\n        /* \"Campaigns.sol\":1312:1322  msg.sender */\n      caller\n        /* \"Campaigns.sol\":1312:1333  msg.sender == manager */\n      0xffffffffffffffffffffffffffffffffffffffff\n      and\n      eq\n        /* \"Campaigns.sol\":1304:1334  require(msg.sender == manager) */\n      tag_67\n      jumpi\n      0x00\n      dup1\n      revert\n    tag_67:\n        /* \"Campaigns.sol\":2317:2336  Request storage req */\n      0x00\n        /* \"Campaigns.sol\":2339:2347  requests */\n      0x02\n        /* \"Campaigns.sol\":2339:2354  requests[index] */\n      0x00\n        /* \"Campaigns.sol\":2348:2353  index */\n      dup4\n        /* \"Campaigns.sol\":2339:2354  requests[index] */\n      dup2\n      mstore\n      0x20\n      add\n      swap1\n      dup2\n      mstore\n      0x20\n      add\n      0x00\n      keccak256\n        /* \"Campaigns.sol\":2317:2354  Request storage req = requests[index] */\n      swap1\n      pop\n        /* \"Campaigns.sol\":2374:2377  req */\n      dup1\n        /* \"Campaigns.sol\":2374:2386  req.complete */\n      0x02\n      add\n      0x14\n      swap1\n      sload\n      swap1\n      0x0100\n      exp\n      swap1\n      div\n      0xff\n      and\n        /* \"Campaigns.sol\":2373:2386  !req.complete */\n      iszero\n        /* \"Campaigns.sol\":2365:2387  require(!req.complete) */\n      tag_69\n      jumpi\n      0x00\n      dup1\n      revert\n    tag_69:\n        /* \"Campaigns.sol\":2448:2449  2 */\n      0x02\n        /* \"Campaigns.sol\":2431:2445  Numofapprovers */\n      sload(0x00)\n        /* \"Campaigns.sol\":2431:2449  Numofapprovers / 2 */\n      tag_70\n      swap2\n      swap1\n      tag_71\n      jump\t// in\n    tag_70:\n        /* \"Campaigns.sol\":2406:2409  req */\n      dup2\n        /* \"Campaigns.sol\":2406:2427  req.Numberofapprovals */\n      0x03\n      add\n      sload\n        /* \"Campaigns.sol\":2406:2450  req.Numberofapprovals > (Numofapprovers / 2) */\n      gt\n        /* \"Campaigns.sol\":2398:2451  require(req.Numberofapprovals > (Numofapprovers / 2)) */\n      tag_72\n      jumpi\n      0x00\n      dup1\n      revert\n    tag_72:\n        /* \"Campaigns.sol\":2477:2481  true */\n      0x01\n        /* \"Campaigns.sol\":2462:2465  req */\n      dup2\n        /* \"Campaigns.sol\":2462:2474  req.complete */\n      0x02\n      add\n      0x14\n        /* \"Campaigns.sol\":2462:2481  req.complete = true */\n      0x0100\n      exp\n      dup2\n      sload\n      dup2\n      0xff\n      mul\n      not\n      and\n      swap1\n      dup4\n      iszero\n      iszero\n      mul\n      or\n      swap1\n      sstore\n      pop\n        /* \"Campaigns.sol\":2492:2495  req */\n      dup1\n        /* \"Campaigns.sol\":2492:2505  req.recipient */\n      0x02\n      add\n      0x00\n      swap1\n      sload\n      swap1\n      0x0100\n      exp\n      swap1\n      div\n      0xffffffffffffffffffffffffffffffffffffffff\n      and\n        /* \"Campaigns.sol\":2492:2514  req.recipient.transfer */\n      0xffffffffffffffffffffffffffffffffffffffff\n      and\n        /* \"Campaigns.sol\":2492:2525  req.recipient.transfer(req.value) */\n      0x08fc\n        /* \"Campaigns.sol\":2515:2518  req */\n      dup3\n        /* \"Campaigns.sol\":2515:2524  req.value */\n      0x01\n      add\n      sload\n        /* \"Campaigns.sol\":2492:2525  req.recipient.transfer(req.value) */\n      swap1\n      dup2\n      iszero\n      mul\n      swap1\n      mload(0x40)\n      0x00\n      mload(0x40)\n      dup1\n      dup4\n      sub\n      dup2\n      dup6\n      dup9\n      dup9\n      call\n      swap4\n      pop\n      pop\n      pop\n      pop\n      iszero\n      dup1\n      iszero\n      tag_74\n      jumpi\n      returndatasize\n      0x00\n      dup1\n      returndatacopy\n      revert(0x00, returndatasize)\n    tag_74:\n      pop\n        /* \"Campaigns.sol\":2306:2533  {... */\n      pop\n        /* \"Campaigns.sol\":2244:2533  function finalizeRequest(uint index) public payable isManager {... */\n      pop\n      jump\t// out\n        /* \"Campaigns.sol\":2844:2971  function isContributor(address approver)external view returns (bool)... */\n    tag_22:\n        /* \"Campaigns.sol\":2907:2911  bool */\n      0x00\n        /* \"Campaigns.sol\":2958:2962  true */\n      0x01\n        /* \"Campaigns.sol\":2937:2962  approvers[approver]==true */\n      iszero\n      iszero\n        /* \"Campaigns.sol\":2937:2946  approvers */\n      0x05\n        /* \"Campaigns.sol\":2937:2956  approvers[approver] */\n      0x00\n        /* \"Campaigns.sol\":2947:2955  approver */\n      dup5\n        /* \"Campaigns.sol\":2937:2956  approvers[approver] */\n      0xffffffffffffffffffffffffffffffffffffffff\n      and\n      0xffffffffffffffffffffffffffffffffffffffff\n      and\n      dup2\n      mstore\n      0x20\n      add\n      swap1\n      dup2\n      mstore\n      0x20\n      add\n      0x00\n      keccak256\n      0x00\n      swap1\n      sload\n      swap1\n      0x0100\n      exp\n      swap1\n      div\n      0xff\n      and\n        /* \"Campaigns.sol\":2937:2962  approvers[approver]==true */\n      iszero\n      iszero\n      eq\n        /* \"Campaigns.sol\":2929:2963  return (approvers[approver]==true) */\n      swap1\n      pop\n        /* \"Campaigns.sol\":2844:2971  function isContributor(address approver)external view returns (bool)... */\n      swap2\n      swap1\n      pop\n      jump\t// out\n        /* \"Campaigns.sol\":822:848  uint public Numofapprovers */\n    tag_27:\n      sload(0x00)\n      dup2\n      jump\t// out\n        /* \"Campaigns.sol\":925:947  address public manager */\n    tag_32:\n      0x03\n      0x00\n      swap1\n      sload\n      swap1\n      0x0100\n      exp\n      swap1\n      div\n      0xffffffffffffffffffffffffffffffffffffffff\n      and\n      dup2\n      jump\t// out\n        /* \"Campaigns.sol\":3165:3255  function getNumRequests() public view returns (uint) {... */\n    tag_37:\n        /* \"Campaigns.sol\":3212:3216  uint */\n      0x00\n        /* \"Campaigns.sol\":3236:3247  numRequests */\n      sload(0x01)\n        /* \"Campaigns.sol\":3229:3247  return numRequests */\n      swap1\n      pop\n        /* \"Campaigns.sol\":3165:3255  function getNumRequests() public view returns (uint) {... */\n      swap1\n      jump\t// out\n        /* \"Campaigns.sol\":878:918  mapping(uint => Request) public requests */\n    tag_42:\n      mstore(0x20, 0x02)\n      dup1\n      0x00\n      mstore\n      keccak256(0x00, 0x40)\n      0x00\n      swap2\n      pop\n      swap1\n      pop\n      dup1\n      0x00\n      add\n      dup1\n      sload\n      tag_77\n      swap1\n      tag_78\n      jump\t// in\n    tag_77:\n      dup1\n      0x1f\n      add\n      0x20\n      dup1\n      swap2\n      div\n      mul\n      0x20\n      add\n      mload(0x40)\n      swap1\n      dup2\n      add\n      0x40\n      mstore\n      dup1\n      swap3\n      swap2\n      swap1\n      dup2\n      dup2\n      mstore\n      0x20\n      add\n      dup3\n      dup1\n      sload\n      tag_79\n      swap1\n      tag_78\n      jump\t// in\n    tag_79:\n      dup1\n      iszero\n      tag_80\n      jumpi\n      dup1\n      0x1f\n      lt\n      tag_81\n      jumpi\n      0x0100\n      dup1\n      dup4\n      sload\n      div\n      mul\n      dup4\n      mstore\n      swap2\n      0x20\n      add\n      swap2\n      jump(tag_80)\n    tag_81:\n      dup3\n      add\n      swap2\n      swap1\n      0x00\n      mstore\n      keccak256(0x00, 0x20)\n      swap1\n    tag_82:\n      dup2\n      sload\n      dup2\n      mstore\n      swap1\n      0x01\n      add\n      swap1\n      0x20\n      add\n      dup1\n      dup4\n      gt\n      tag_82\n      jumpi\n      dup3\n      swap1\n      sub\n      0x1f\n      and\n      dup3\n      add\n      swap2\n    tag_80:\n      pop\n      pop\n      pop\n      pop\n      pop\n      swap1\n      dup1\n      0x01\n      add\n      sload\n      swap1\n      dup1\n      0x02\n      add\n      0x00\n      swap1\n      sload\n      swap1\n      0x0100\n      exp\n      swap1\n      div\n      0xffffffffffffffffffffffffffffffffffffffff\n      and\n      swap1\n      dup1\n      0x02\n      add\n      0x14\n      swap1\n      sload\n      swap1\n      0x0100\n      exp\n      swap1\n      div\n      0xff\n      and\n      swap1\n      dup1\n      0x03\n      add\n      sload\n      swap1\n      pop\n      dup6\n      jump\t// out\n        /* \"Campaigns.sol\":1556:1889  function createRequest(... */\n    tag_49:\n        /* \"Campaigns.sol\":1326:1333  manager */\n      0x03\n      0x00\n      swap1\n      sload\n      swap1\n      0x0100\n      exp\n      swap1\n      div\n      0xffffffffffffffffffffffffffffffffffffffff\n      and\n        /* \"Campaigns.sol\":1312:1333  msg.sender == manager */\n      0xffffffffffffffffffffffffffffffffffffffff\n      and\n        /* \"Campaigns.sol\":1312:1322  msg.sender */\n      caller\n        /* \"Campaigns.sol\":1312:1333  msg.sender == manager */\n      0xffffffffffffffffffffffffffffffffffffffff\n      and\n      eq\n        /* \"Campaigns.sol\":1304:1334  require(msg.sender == manager) */\n      tag_84\n      jumpi\n      0x00\n      dup1\n      revert\n    tag_84:\n        /* \"Campaigns.sol\":1692:1709  Request storage r */\n      0x00\n        /* \"Campaigns.sol\":1712:1720  requests */\n      0x02\n        /* \"Campaigns.sol\":1712:1735  requests[numRequests++] */\n      0x00\n        /* \"Campaigns.sol\":1721:1732  numRequests */\n      0x01\n      0x00\n        /* \"Campaigns.sol\":1721:1734  numRequests++ */\n      dup2\n      sload\n      dup1\n      swap3\n      swap2\n      swap1\n      tag_86\n      swap1\n      tag_87\n      jump\t// in\n    tag_86:\n      swap2\n      swap1\n      pop\n      sstore\n        /* \"Campaigns.sol\":1712:1735  requests[numRequests++] */\n      dup2\n      mstore\n      0x20\n      add\n      swap1\n      dup2\n      mstore\n      0x20\n      add\n      0x00\n      keccak256\n        /* \"Campaigns.sol\":1692:1735  Request storage r = requests[numRequests++] */\n      swap1\n      pop\n        /* \"Campaigns.sol\":1762:1766  desc */\n      dup4\n        /* \"Campaigns.sol\":1746:1747  r */\n      dup2\n        /* \"Campaigns.sol\":1746:1759  r.description */\n      0x00\n      add\n        /* \"Campaigns.sol\":1746:1766  r.description = desc */\n      swap1\n      dup2\n      tag_88\n      swap2\n      swap1\n      tag_89\n      jump\t// in\n    tag_88:\n      pop\n        /* \"Campaigns.sol\":1787:1790  val */\n      dup3\n        /* \"Campaigns.sol\":1777:1778  r */\n      dup2\n        /* \"Campaigns.sol\":1777:1784  r.value */\n      0x01\n      add\n        /* \"Campaigns.sol\":1777:1790  r.value = val */\n      dup2\n      swap1\n      sstore\n      pop\n        /* \"Campaigns.sol\":1815:1818  rec */\n      dup2\n        /* \"Campaigns.sol\":1801:1802  r */\n      dup2\n        /* \"Campaigns.sol\":1801:1812  r.recipient */\n      0x02\n      add\n      0x00\n        /* \"Campaigns.sol\":1801:1818  r.recipient = rec */\n      0x0100\n      exp\n      dup2\n      sload\n      dup2\n      0xffffffffffffffffffffffffffffffffffffffff\n      mul\n      not\n      and\n      swap1\n      dup4\n      0xffffffffffffffffffffffffffffffffffffffff\n      and\n      mul\n      or\n      swap1\n      sstore\n      pop\n        /* \"Campaigns.sol\":1842:1847  false */\n      0x00\n        /* \"Campaigns.sol\":1829:1830  r */\n      dup2\n        /* \"Campaigns.sol\":1829:1839  r.complete */\n      0x02\n      add\n      0x14\n        /* \"Campaigns.sol\":1829:1847  r.complete = false */\n      0x0100\n      exp\n      dup2\n      sload\n      dup2\n      0xff\n      mul\n      not\n      and\n      swap1\n      dup4\n      iszero\n      iszero\n      mul\n      or\n      swap1\n      sstore\n      pop\n        /* \"Campaigns.sol\":1880:1881  0 */\n      0x00\n        /* \"Campaigns.sol\":1858:1859  r */\n      dup2\n        /* \"Campaigns.sol\":1858:1877  r.Numberofapprovals */\n      0x03\n      add\n        /* \"Campaigns.sol\":1858:1881  r.Numberofapprovals = 0 */\n      dup2\n      swap1\n      sstore\n      pop\n        /* \"Campaigns.sol\":1681:1889  {... */\n      pop\n        /* \"Campaigns.sol\":1556:1889  function createRequest(... */\n      pop\n      pop\n      pop\n      jump\t// out\n        /* \"Campaigns.sol\":2541:2836  function SummariseCampaign()... */\n    tag_52:\n        /* \"Campaigns.sol\":2618:2622  uint */\n      0x00\n        /* \"Campaigns.sol\":2624:2628  uint */\n      dup1\n        /* \"Campaigns.sol\":2630:2634  uint */\n      0x00\n        /* \"Campaigns.sol\":2636:2640  uint */\n      dup1\n        /* \"Campaigns.sol\":2642:2649  address */\n      0x00\n        /* \"Campaigns.sol\":2689:2704  minContribution */\n      sload(0x04)\n        /* \"Campaigns.sol\":2719:2740  address(this).balance */\n      selfbalance\n        /* \"Campaigns.sol\":2755:2766  numRequests */\n      sload(0x01)\n        /* \"Campaigns.sol\":2781:2795  Numofapprovers */\n      sload(0x00)\n        /* \"Campaigns.sol\":2810:2817  manager */\n      0x03\n      0x00\n      swap1\n      sload\n      swap1\n      0x0100\n      exp\n      swap1\n      div\n      0xffffffffffffffffffffffffffffffffffffffff\n      and\n        /* \"Campaigns.sol\":2667:2828  return (... */\n      swap5\n      pop\n      swap5\n      pop\n      swap5\n      pop\n      swap5\n      pop\n      swap5\n      pop\n        /* \"Campaigns.sol\":2541:2836  function SummariseCampaign()... */\n      swap1\n      swap2\n      swap3\n      swap4\n      swap5\n      jump\t// out\n        /* \"Campaigns.sol\":1362:1548  function contribute() public payable restriction {... */\n    tag_56:\n        /* \"Campaigns.sol\":1230:1245  minContribution */\n      sload(0x04)\n        /* \"Campaigns.sol\":1218:1227  msg.value */\n      callvalue\n        /* \"Campaigns.sol\":1218:1245  msg.value > minContribution */\n      gt\n        /* \"Campaigns.sol\":1210:1246  require(msg.value > minContribution) */\n      tag_92\n      jumpi\n      0x00\n      dup1\n      revert\n    tag_92:\n        /* \"Campaigns.sol\":1451:1456  false */\n      0x00\n        /* \"Campaigns.sol\":1426:1456  approvers[msg.sender] == false */\n      iszero\n      iszero\n        /* \"Campaigns.sol\":1426:1435  approvers */\n      0x05\n        /* \"Campaigns.sol\":1426:1447  approvers[msg.sender] */\n      0x00\n        /* \"Campaigns.sol\":1436:1446  msg.sender */\n      caller\n        /* \"Campaigns.sol\":1426:1447  approvers[msg.sender] */\n      0xffffffffffffffffffffffffffffffffffffffff\n      and\n      0xffffffffffffffffffffffffffffffffffffffff\n      and\n      dup2\n      mstore\n      0x20\n      add\n      swap1\n      dup2\n      mstore\n      0x20\n      add\n      0x00\n      keccak256\n      0x00\n      swap1\n      sload\n      swap1\n      0x0100\n      exp\n      swap1\n      div\n      0xff\n      and\n        /* \"Campaigns.sol\":1426:1456  approvers[msg.sender] == false */\n      iszero\n      iszero\n      sub\n        /* \"Campaigns.sol\":1422:1502  if (approvers[msg.sender] == false ) {... */\n      tag_94\n      jumpi\n        /* \"Campaigns.sol\":1474:1488  Numofapprovers */\n      0x00\n      dup1\n        /* \"Campaigns.sol\":1474:1490  Numofapprovers++ */\n      dup2\n      sload\n      dup1\n      swap3\n      swap2\n      swap1\n      tag_95\n      swap1\n      tag_87\n      jump\t// in\n    tag_95:\n      swap2\n      swap1\n      pop\n      sstore\n      pop\n        /* \"Campaigns.sol\":1422:1502  if (approvers[msg.sender] == false ) {... */\n    tag_94:\n        /* \"Campaigns.sol\":1536:1540  true */\n      0x01\n        /* \"Campaigns.sol\":1512:1521  approvers */\n      0x05\n        /* \"Campaigns.sol\":1512:1533  approvers[msg.sender] */\n      0x00\n        /* \"Campaigns.sol\":1522:1532  msg.sender */\n      caller\n        /* \"Campaigns.sol\":1512:1533  approvers[msg.sender] */\n      0xffffffffffffffffffffffffffffffffffffffff\n      and\n      0xffffffffffffffffffffffffffffffffffffffff\n      and\n      dup2\n      mstore\n      0x20\n      add\n      swap1\n      dup2\n      mstore\n      0x20\n      add\n      0x00\n      keccak256\n      0x00\n        /* \"Campaigns.sol\":1512:1540  approvers[msg.sender] = true */\n      0x0100\n      exp\n      dup2\n      sload\n      dup2\n      0xff\n      mul\n      not\n      and\n      swap1\n      dup4\n      iszero\n      iszero\n      mul\n      or\n      swap1\n      sstore\n      pop\n        /* \"Campaigns.sol\":1362:1548  function contribute() public payable restriction {... */\n      jump\t// out\n        /* \"Campaigns.sol\":1897:2236  function approveRequest(uint index) public {... */\n    tag_60:\n        /* \"Campaigns.sol\":1951:1970  Request storage req */\n      0x00\n        /* \"Campaigns.sol\":1973:1981  requests */\n      0x02\n        /* \"Campaigns.sol\":1973:1988  requests[index] */\n      0x00\n        /* \"Campaigns.sol\":1982:1987  index */\n      dup4\n        /* \"Campaigns.sol\":1973:1988  requests[index] */\n      dup2\n      mstore\n      0x20\n      add\n      swap1\n      dup2\n      mstore\n      0x20\n      add\n      0x00\n      keccak256\n        /* \"Campaigns.sol\":1951:1988  Request storage req = requests[index] */\n      swap1\n      pop\n        /* \"Campaigns.sol\":2009:2018  approvers */\n      0x05\n        /* \"Campaigns.sol\":2009:2030  approvers[msg.sender] */\n      0x00\n        /* \"Campaigns.sol\":2019:2029  msg.sender */\n      caller\n        /* \"Campaigns.sol\":2009:2030  approvers[msg.sender] */\n      0xffffffffffffffffffffffffffffffffffffffff\n      and\n      0xffffffffffffffffffffffffffffffffffffffff\n      and\n      dup2\n      mstore\n      0x20\n      add\n      swap1\n      dup2\n      mstore\n      0x20\n      add\n      0x00\n      keccak256\n      0x00\n      swap1\n      sload\n      swap1\n      0x0100\n      exp\n      swap1\n      div\n      0xff\n      and\n        /* \"Campaigns.sol\":2001:2031  require(approvers[msg.sender]) */\n      tag_97\n      jumpi\n      0x00\n      dup1\n      revert\n    tag_97:\n        /* \"Campaigns.sol\":2088:2091  req */\n      dup1\n        /* \"Campaigns.sol\":2088:2101  req.approvals */\n      0x04\n      add\n        /* \"Campaigns.sol\":2088:2113  req.approvals[msg.sender] */\n      0x00\n        /* \"Campaigns.sol\":2102:2112  msg.sender */\n      caller\n        /* \"Campaigns.sol\":2088:2113  req.approvals[msg.sender] */\n      0xffffffffffffffffffffffffffffffffffffffff\n      and\n      0xffffffffffffffffffffffffffffffffffffffff\n      and\n      dup2\n      mstore\n      0x20\n      add\n      swap1\n      dup2\n      mstore\n      0x20\n      add\n      0x00\n      keccak256\n      0x00\n      swap1\n      sload\n      swap1\n      0x0100\n      exp\n      swap1\n      div\n      0xff\n      and\n        /* \"Campaigns.sol\":2087:2113  !req.approvals[msg.sender] */\n      iszero\n        /* \"Campaigns.sol\":2079:2114  require(!req.approvals[msg.sender]) */\n      tag_98\n      jumpi\n      0x00\n      dup1\n      revert\n    tag_98:\n        /* \"Campaigns.sol\":2190:2194  true */\n      0x01\n        /* \"Campaigns.sol\":2162:2165  req */\n      dup2\n        /* \"Campaigns.sol\":2162:2175  req.approvals */\n      0x04\n      add\n        /* \"Campaigns.sol\":2162:2187  req.approvals[msg.sender] */\n      0x00\n        /* \"Campaigns.sol\":2176:2186  msg.sender */\n      caller\n        /* \"Campaigns.sol\":2162:2187  req.approvals[msg.sender] */\n      0xffffffffffffffffffffffffffffffffffffffff\n      and\n      0xffffffffffffffffffffffffffffffffffffffff\n      and\n      dup2\n      mstore\n      0x20\n      add\n      swap1\n      dup2\n      mstore\n      0x20\n      add\n      0x00\n      keccak256\n      0x00\n        /* \"Campaigns.sol\":2162:2194  req.approvals[msg.sender] = true */\n      0x0100\n      exp\n      dup2\n      sload\n      dup2\n      0xff\n      mul\n      not\n      and\n      swap1\n      dup4\n      iszero\n      iszero\n      mul\n      or\n      swap1\n      sstore\n      pop\n        /* \"Campaigns.sol\":2205:2208  req */\n      dup1\n        /* \"Campaigns.sol\":2205:2226  req.Numberofapprovals */\n      0x03\n      add\n      0x00\n        /* \"Campaigns.sol\":2205:2228  req.Numberofapprovals++ */\n      dup2\n      sload\n      dup1\n      swap3\n      swap2\n      swap1\n      tag_99\n      swap1\n      tag_87\n      jump\t// in\n    tag_99:\n      swap2\n      swap1\n      pop\n      sstore\n      pop\n        /* \"Campaigns.sol\":1940:2236  {... */\n      pop\n        /* \"Campaigns.sol\":1897:2236  function approveRequest(uint index) public {... */\n      pop\n      jump\t// out\n        /* \"Campaigns.sol\":2979:3155  function hasAlreadyApproved(uint index) public view returns (bool) {... */\n    tag_64:\n        /* \"Campaigns.sol\":3040:3044  bool */\n      0x00\n        /* \"Campaigns.sol\":3057:3076  Request storage req */\n      dup1\n        /* \"Campaigns.sol\":3079:3087  requests */\n      0x02\n        /* \"Campaigns.sol\":3079:3094  requests[index] */\n      0x00\n        /* \"Campaigns.sol\":3088:3093  index */\n      dup5\n        /* \"Campaigns.sol\":3079:3094  requests[index] */\n      dup2\n      mstore\n      0x20\n      add\n      swap1\n      dup2\n      mstore\n      0x20\n      add\n      0x00\n      keccak256\n        /* \"Campaigns.sol\":3057:3094  Request storage req = requests[index] */\n      swap1\n      pop\n        /* \"Campaigns.sol\":3142:3146  true */\n      0x01\n        /* \"Campaigns.sol\":3113:3146  req.approvals[msg.sender] == true */\n      iszero\n      iszero\n        /* \"Campaigns.sol\":3113:3116  req */\n      dup2\n        /* \"Campaigns.sol\":3113:3126  req.approvals */\n      0x04\n      add\n        /* \"Campaigns.sol\":3113:3138  req.approvals[msg.sender] */\n      0x00\n        /* \"Campaigns.sol\":3127:3137  msg.sender */\n      caller\n        /* \"Campaigns.sol\":3113:3138  req.approvals[msg.sender] */\n      0xffffffffffffffffffffffffffffffffffffffff\n      and\n      0xffffffffffffffffffffffffffffffffffffffff\n      and\n      dup2\n      mstore\n      0x20\n      add\n      swap1\n      dup2\n      mstore\n      0x20\n      add\n      0x00\n      keccak256\n      0x00\n      swap1\n      sload\n      swap1\n      0x0100\n      exp\n      swap1\n      div\n      0xff\n      and\n        /* \"Campaigns.sol\":3113:3146  req.approvals[msg.sender] == true */\n      iszero\n      iszero\n      eq\n        /* \"Campaigns.sol\":3105:3147  return (req.approvals[msg.sender] == true) */\n      swap2\n      pop\n      pop\n        /* \"Campaigns.sol\":2979:3155  function hasAlreadyApproved(uint index) public view returns (bool) {... */\n      swap2\n      swap1\n      pop\n      jump\t// out\n        /* \"#utility.yul\":7:82   */\n    tag_101:\n        /* \"#utility.yul\":40:46   */\n      0x00\n        /* \"#utility.yul\":73:75   */\n      0x40\n        /* \"#utility.yul\":67:76   */\n      mload\n        /* \"#utility.yul\":57:76   */\n      swap1\n      pop\n        /* \"#utility.yul\":7:82   */\n      swap1\n      jump\t// out\n        /* \"#utility.yul\":88:205   */\n    tag_102:\n        /* \"#utility.yul\":197:198   */\n      0x00\n        /* \"#utility.yul\":194:195   */\n      dup1\n        /* \"#utility.yul\":187:199   */\n      revert\n        /* \"#utility.yul\":211:328   */\n    tag_103:\n        /* \"#utility.yul\":320:321   */\n      0x00\n        /* \"#utility.yul\":317:318   */\n      dup1\n        /* \"#utility.yul\":310:322   */\n      revert\n        /* \"#utility.yul\":334:411   */\n    tag_104:\n        /* \"#utility.yul\":371:378   */\n      0x00\n        /* \"#utility.yul\":400:405   */\n      dup2\n        /* \"#utility.yul\":389:405   */\n      swap1\n      pop\n        /* \"#utility.yul\":334:411   */\n      swap2\n      swap1\n      pop\n      jump\t// out\n        /* \"#utility.yul\":417:539   */\n    tag_105:\n        /* \"#utility.yul\":490:514   */\n      tag_157\n        /* \"#utility.yul\":508:513   */\n      dup2\n        /* \"#utility.yul\":490:514   */\n      tag_104\n      jump\t// in\n    tag_157:\n        /* \"#utility.yul\":483:488   */\n      dup2\n        /* \"#utility.yul\":480:515   */\n      eq\n        /* \"#utility.yul\":470:533   */\n      tag_158\n      jumpi\n        /* \"#utility.yul\":529:530   */\n      0x00\n        /* \"#utility.yul\":526:527   */\n      dup1\n        /* \"#utility.yul\":519:531   */\n      revert\n        /* \"#utility.yul\":470:533   */\n    tag_158:\n        /* \"#utility.yul\":417:539   */\n      pop\n      jump\t// out\n        /* \"#utility.yul\":545:684   */\n    tag_106:\n        /* \"#utility.yul\":591:596   */\n      0x00\n        /* \"#utility.yul\":629:635   */\n      dup2\n        /* \"#utility.yul\":616:636   */\n      calldataload\n        /* \"#utility.yul\":607:636   */\n      swap1\n      pop\n        /* \"#utility.yul\":645:678   */\n      tag_160\n        /* \"#utility.yul\":672:677   */\n      dup2\n        /* \"#utility.yul\":645:678   */\n      tag_105\n      jump\t// in\n    tag_160:\n        /* \"#utility.yul\":545:684   */\n      swap3\n      swap2\n      pop\n      pop\n      jump\t// out\n        /* \"#utility.yul\":690:1019   */\n    tag_16:\n        /* \"#utility.yul\":749:755   */\n      0x00\n        /* \"#utility.yul\":798:800   */\n      0x20\n        /* \"#utility.yul\":786:795   */\n      dup3\n        /* \"#utility.yul\":777:784   */\n      dup5\n        /* \"#utility.yul\":773:796   */\n      sub\n        /* \"#utility.yul\":769:801   */\n      slt\n        /* \"#utility.yul\":766:885   */\n      iszero\n      tag_162\n      jumpi\n        /* \"#utility.yul\":804:883   */\n      tag_163\n      tag_102\n      jump\t// in\n    tag_163:\n        /* \"#utility.yul\":766:885   */\n    tag_162:\n        /* \"#utility.yul\":924:925   */\n      0x00\n        /* \"#utility.yul\":949:1002   */\n      tag_164\n        /* \"#utility.yul\":994:1001   */\n      dup5\n        /* \"#utility.yul\":985:991   */\n      dup3\n        /* \"#utility.yul\":974:983   */\n      dup6\n        /* \"#utility.yul\":970:992   */\n      add\n        /* \"#utility.yul\":949:1002   */\n      tag_106\n      jump\t// in\n    tag_164:\n        /* \"#utility.yul\":939:1002   */\n      swap2\n      pop\n        /* \"#utility.yul\":895:1012   */\n      pop\n        /* \"#utility.yul\":690:1019   */\n      swap3\n      swap2\n      pop\n      pop\n      jump\t// out\n        /* \"#utility.yul\":1025:1151   */\n    tag_107:\n        /* \"#utility.yul\":1062:1069   */\n      0x00\n        /* \"#utility.yul\":1102:1144   */\n      0xffffffffffffffffffffffffffffffffffffffff\n        /* \"#utility.yul\":1095:1100   */\n      dup3\n        /* \"#utility.yul\":1091:1145   */\n      and\n        /* \"#utility.yul\":1080:1145   */\n      swap1\n      pop\n        /* \"#utility.yul\":1025:1151   */\n      swap2\n      swap1\n      pop\n      jump\t// out\n        /* \"#utility.yul\":1157:1253   */\n    tag_108:\n        /* \"#utility.yul\":1194:1201   */\n      0x00\n        /* \"#utility.yul\":1223:1247   */\n      tag_167\n        /* \"#utility.yul\":1241:1246   */\n      dup3\n        /* \"#utility.yul\":1223:1247   */\n      tag_107\n      jump\t// in\n    tag_167:\n        /* \"#utility.yul\":1212:1247   */\n      swap1\n      pop\n        /* \"#utility.yul\":1157:1253   */\n      swap2\n      swap1\n      pop\n      jump\t// out\n        /* \"#utility.yul\":1259:1381   */\n    tag_109:\n        /* \"#utility.yul\":1332:1356   */\n      tag_169\n        /* \"#utility.yul\":1350:1355   */\n      dup2\n        /* \"#utility.yul\":1332:1356   */\n      tag_108\n      jump\t// in\n    tag_169:\n        /* \"#utility.yul\":1325:1330   */\n      dup2\n        /* \"#utility.yul\":1322:1357   */\n      eq\n        /* \"#utility.yul\":1312:1375   */\n      tag_170\n      jumpi\n        /* \"#utility.yul\":1371:1372   */\n      0x00\n        /* \"#utility.yul\":1368:1369   */\n      dup1\n        /* \"#utility.yul\":1361:1373   */\n      revert\n        /* \"#utility.yul\":1312:1375   */\n    tag_170:\n        /* \"#utility.yul\":1259:1381   */\n      pop\n      jump\t// out\n        /* \"#utility.yul\":1387:1526   */\n    tag_110:\n        /* \"#utility.yul\":1433:1438   */\n      0x00\n        /* \"#utility.yul\":1471:1477   */\n      dup2\n        /* \"#utility.yul\":1458:1478   */\n      calldataload\n        /* \"#utility.yul\":1449:1478   */\n      swap1\n      pop\n        /* \"#utility.yul\":1487:1520   */\n      tag_172\n        /* \"#utility.yul\":1514:1519   */\n      dup2\n        /* \"#utility.yul\":1487:1520   */\n      tag_109\n      jump\t// in\n    tag_172:\n        /* \"#utility.yul\":1387:1526   */\n      swap3\n      swap2\n      pop\n      pop\n      jump\t// out\n        /* \"#utility.yul\":1532:1861   */\n    tag_21:\n        /* \"#utility.yul\":1591:1597   */\n      0x00\n        /* \"#utility.yul\":1640:1642   */\n      0x20\n        /* \"#utility.yul\":1628:1637   */\n      dup3\n        /* \"#utility.yul\":1619:1626   */\n      dup5\n        /* \"#utility.yul\":1615:1638   */\n      sub\n        /* \"#utility.yul\":1611:1643   */\n      slt\n        /* \"#utility.yul\":1608:1727   */\n      iszero\n      tag_174\n      jumpi\n        /* \"#utility.yul\":1646:1725   */\n      tag_175\n      tag_102\n      jump\t// in\n    tag_175:\n        /* \"#utility.yul\":1608:1727   */\n    tag_174:\n        /* \"#utility.yul\":1766:1767   */\n      0x00\n        /* \"#utility.yul\":1791:1844   */\n      tag_176\n        /* \"#utility.yul\":1836:1843   */\n      dup5\n        /* \"#utility.yul\":1827:1833   */\n      dup3\n        /* \"#utility.yul\":1816:1825   */\n      dup6\n        /* \"#utility.yul\":1812:1834   */\n      add\n        /* \"#utility.yul\":1791:1844   */\n      tag_110\n      jump\t// in\n    tag_176:\n        /* \"#utility.yul\":1781:1844   */\n      swap2\n      pop\n        /* \"#utility.yul\":1737:1854   */\n      pop\n        /* \"#utility.yul\":1532:1861   */\n      swap3\n      swap2\n      pop\n      pop\n      jump\t// out\n        /* \"#utility.yul\":1867:1957   */\n    tag_111:\n        /* \"#utility.yul\":1901:1908   */\n      0x00\n        /* \"#utility.yul\":1944:1949   */\n      dup2\n        /* \"#utility.yul\":1937:1950   */\n      iszero\n        /* \"#utility.yul\":1930:1951   */\n      iszero\n        /* \"#utility.yul\":1919:1951   */\n      swap1\n      pop\n        /* \"#utility.yul\":1867:1957   */\n      swap2\n      swap1\n      pop\n      jump\t// out\n        /* \"#utility.yul\":1963:2072   */\n    tag_112:\n        /* \"#utility.yul\":2044:2065   */\n      tag_179\n        /* \"#utility.yul\":2059:2064   */\n      dup2\n        /* \"#utility.yul\":2044:2065   */\n      tag_111\n      jump\t// in\n    tag_179:\n        /* \"#utility.yul\":2039:2042   */\n      dup3\n        /* \"#utility.yul\":2032:2066   */\n      mstore\n        /* \"#utility.yul\":1963:2072   */\n      pop\n      pop\n      jump\t// out\n        /* \"#utility.yul\":2078:2288   */\n    tag_24:\n        /* \"#utility.yul\":2165:2169   */\n      0x00\n        /* \"#utility.yul\":2203:2205   */\n      0x20\n        /* \"#utility.yul\":2192:2201   */\n      dup3\n        /* \"#utility.yul\":2188:2206   */\n      add\n        /* \"#utility.yul\":2180:2206   */\n      swap1\n      pop\n        /* \"#utility.yul\":2216:2281   */\n      tag_181\n        /* \"#utility.yul\":2278:2279   */\n      0x00\n        /* \"#utility.yul\":2267:2276   */\n      dup4\n        /* \"#utility.yul\":2263:2280   */\n      add\n        /* \"#utility.yul\":2254:2260   */\n      dup5\n        /* \"#utility.yul\":2216:2281   */\n      tag_112\n      jump\t// in\n    tag_181:\n        /* \"#utility.yul\":2078:2288   */\n      swap3\n      swap2\n      pop\n      pop\n      jump\t// out\n        /* \"#utility.yul\":2294:2412   */\n    tag_113:\n        /* \"#utility.yul\":2381:2405   */\n      tag_183\n        /* \"#utility.yul\":2399:2404   */\n      dup2\n        /* \"#utility.yul\":2381:2405   */\n      tag_104\n      jump\t// in\n    tag_183:\n        /* \"#utility.yul\":2376:2379   */\n      dup3\n        /* \"#utility.yul\":2369:2406   */\n      mstore\n        /* \"#utility.yul\":2294:2412   */\n      pop\n      pop\n      jump\t// out\n        /* \"#utility.yul\":2418:2640   */\n    tag_29:\n        /* \"#utility.yul\":2511:2515   */\n      0x00\n        /* \"#utility.yul\":2549:2551   */\n      0x20\n        /* \"#utility.yul\":2538:2547   */\n      dup3\n        /* \"#utility.yul\":2534:2552   */\n      add\n        /* \"#utility.yul\":2526:2552   */\n      swap1\n      pop\n        /* \"#utility.yul\":2562:2633   */\n      tag_185\n        /* \"#utility.yul\":2630:2631   */\n      0x00\n        /* \"#utility.yul\":2619:2628   */\n      dup4\n        /* \"#utility.yul\":2615:2632   */\n      add\n        /* \"#utility.yul\":2606:2612   */\n      dup5\n        /* \"#utility.yul\":2562:2633   */\n      tag_113\n      jump\t// in\n    tag_185:\n        /* \"#utility.yul\":2418:2640   */\n      swap3\n      swap2\n      pop\n      pop\n      jump\t// out\n        /* \"#utility.yul\":2646:2764   */\n    tag_114:\n        /* \"#utility.yul\":2733:2757   */\n      tag_187\n        /* \"#utility.yul\":2751:2756   */\n      dup2\n        /* \"#utility.yul\":2733:2757   */\n      tag_108\n      jump\t// in\n    tag_187:\n        /* \"#utility.yul\":2728:2731   */\n      dup3\n        /* \"#utility.yul\":2721:2758   */\n      mstore\n        /* \"#utility.yul\":2646:2764   */\n      pop\n      pop\n      jump\t// out\n        /* \"#utility.yul\":2770:2992   */\n    tag_34:\n        /* \"#utility.yul\":2863:2867   */\n      0x00\n        /* \"#utility.yul\":2901:2903   */\n      0x20\n        /* \"#utility.yul\":2890:2899   */\n      dup3\n        /* \"#utility.yul\":2886:2904   */\n      add\n        /* \"#utility.yul\":2878:2904   */\n      swap1\n      pop\n        /* \"#utility.yul\":2914:2985   */\n      tag_189\n        /* \"#utility.yul\":2982:2983   */\n      0x00\n        /* \"#utility.yul\":2971:2980   */\n      dup4\n        /* \"#utility.yul\":2967:2984   */\n      add\n        /* \"#utility.yul\":2958:2964   */\n      dup5\n        /* \"#utility.yul\":2914:2985   */\n      tag_114\n      jump\t// in\n    tag_189:\n        /* \"#utility.yul\":2770:2992   */\n      swap3\n      swap2\n      pop\n      pop\n      jump\t// out\n        /* \"#utility.yul\":2998:3097   */\n    tag_115:\n        /* \"#utility.yul\":3050:3056   */\n      0x00\n        /* \"#utility.yul\":3084:3089   */\n      dup2\n        /* \"#utility.yul\":3078:3090   */\n      mload\n        /* \"#utility.yul\":3068:3090   */\n      swap1\n      pop\n        /* \"#utility.yul\":2998:3097   */\n      swap2\n      swap1\n      pop\n      jump\t// out\n        /* \"#utility.yul\":3103:3272   */\n    tag_116:\n        /* \"#utility.yul\":3187:3198   */\n      0x00\n        /* \"#utility.yul\":3221:3227   */\n      dup3\n        /* \"#utility.yul\":3216:3219   */\n      dup3\n        /* \"#utility.yul\":3209:3228   */\n      mstore\n        /* \"#utility.yul\":3261:3265   */\n      0x20\n        /* \"#utility.yul\":3256:3259   */\n      dup3\n        /* \"#utility.yul\":3252:3266   */\n      add\n        /* \"#utility.yul\":3237:3266   */\n      swap1\n      pop\n        /* \"#utility.yul\":3103:3272   */\n      swap3\n      swap2\n      pop\n      pop\n      jump\t// out\n        /* \"#utility.yul\":3278:3524   */\n    tag_117:\n        /* \"#utility.yul\":3359:3360   */\n      0x00\n        /* \"#utility.yul\":3369:3482   */\n    tag_193:\n        /* \"#utility.yul\":3383:3389   */\n      dup4\n        /* \"#utility.yul\":3380:3381   */\n      dup2\n        /* \"#utility.yul\":3377:3390   */\n      lt\n        /* \"#utility.yul\":3369:3482   */\n      iszero\n      tag_195\n      jumpi\n        /* \"#utility.yul\":3468:3469   */\n      dup1\n        /* \"#utility.yul\":3463:3466   */\n      dup3\n        /* \"#utility.yul\":3459:3470   */\n      add\n        /* \"#utility.yul\":3453:3471   */\n      mload\n        /* \"#utility.yul\":3449:3450   */\n      dup2\n        /* \"#utility.yul\":3444:3447   */\n      dup5\n        /* \"#utility.yul\":3440:3451   */\n      add\n        /* \"#utility.yul\":3433:3472   */\n      mstore\n        /* \"#utility.yul\":3405:3407   */\n      0x20\n        /* \"#utility.yul\":3402:3403   */\n      dup2\n        /* \"#utility.yul\":3398:3408   */\n      add\n        /* \"#utility.yul\":3393:3408   */\n      swap1\n      pop\n        /* \"#utility.yul\":3369:3482   */\n      jump(tag_193)\n    tag_195:\n        /* \"#utility.yul\":3516:3517   */\n      0x00\n        /* \"#utility.yul\":3507:3513   */\n      dup5\n        /* \"#utility.yul\":3502:3505   */\n      dup5\n        /* \"#utility.yul\":3498:3514   */\n      add\n        /* \"#utility.yul\":3491:3518   */\n      mstore\n        /* \"#utility.yul\":3340:3524   */\n      pop\n        /* \"#utility.yul\":3278:3524   */\n      pop\n      pop\n      pop\n      jump\t// out\n        /* \"#utility.yul\":3530:3632   */\n    tag_118:\n        /* \"#utility.yul\":3571:3577   */\n      0x00\n        /* \"#utility.yul\":3622:3624   */\n      0x1f\n        /* \"#utility.yul\":3618:3625   */\n      not\n        /* \"#utility.yul\":3613:3615   */\n      0x1f\n        /* \"#utility.yul\":3606:3611   */\n      dup4\n        /* \"#utility.yul\":3602:3616   */\n      add\n        /* \"#utility.yul\":3598:3626   */\n      and\n        /* \"#utility.yul\":3588:3626   */\n      swap1\n      pop\n        /* \"#utility.yul\":3530:3632   */\n      swap2\n      swap1\n      pop\n      jump\t// out\n        /* \"#utility.yul\":3638:4015   */\n    tag_119:\n        /* \"#utility.yul\":3726:3729   */\n      0x00\n        /* \"#utility.yul\":3754:3793   */\n      tag_198\n        /* \"#utility.yul\":3787:3792   */\n      dup3\n        /* \"#utility.yul\":3754:3793   */\n      tag_115\n      jump\t// in\n    tag_198:\n        /* \"#utility.yul\":3809:3880   */\n      tag_199\n        /* \"#utility.yul\":3873:3879   */\n      dup2\n        /* \"#utility.yul\":3868:3871   */\n      dup6\n        /* \"#utility.yul\":3809:3880   */\n      tag_116\n      jump\t// in\n    tag_199:\n        /* \"#utility.yul\":3802:3880   */\n      swap4\n      pop\n        /* \"#utility.yul\":3889:3954   */\n      tag_200\n        /* \"#utility.yul\":3947:3953   */\n      dup2\n        /* \"#utility.yul\":3942:3945   */\n      dup6\n        /* \"#utility.yul\":3935:3939   */\n      0x20\n        /* \"#utility.yul\":3928:3933   */\n      dup7\n        /* \"#utility.yul\":3924:3940   */\n      add\n        /* \"#utility.yul\":3889:3954   */\n      tag_117\n      jump\t// in\n    tag_200:\n        /* \"#utility.yul\":3979:4008   */\n      tag_201\n        /* \"#utility.yul\":4001:4007   */\n      dup2\n        /* \"#utility.yul\":3979:4008   */\n      tag_118\n      jump\t// in\n    tag_201:\n        /* \"#utility.yul\":3974:3977   */\n      dup5\n        /* \"#utility.yul\":3970:4009   */\n      add\n        /* \"#utility.yul\":3963:4009   */\n      swap2\n      pop\n        /* \"#utility.yul\":3730:4015   */\n      pop\n        /* \"#utility.yul\":3638:4015   */\n      swap3\n      swap2\n      pop\n      pop\n      jump\t// out\n        /* \"#utility.yul\":4021:4125   */\n    tag_120:\n        /* \"#utility.yul\":4066:4073   */\n      0x00\n        /* \"#utility.yul\":4095:4119   */\n      tag_203\n        /* \"#utility.yul\":4113:4118   */\n      dup3\n        /* \"#utility.yul\":4095:4119   */\n      tag_107\n      jump\t// in\n    tag_203:\n        /* \"#utility.yul\":4084:4119   */\n      swap1\n      pop\n        /* \"#utility.yul\":4021:4125   */\n      swap2\n      swap1\n      pop\n      jump\t// out\n        /* \"#utility.yul\":4131:4273   */\n    tag_121:\n        /* \"#utility.yul\":4234:4266   */\n      tag_205\n        /* \"#utility.yul\":4260:4265   */\n      dup2\n        /* \"#utility.yul\":4234:4266   */\n      tag_120\n      jump\t// in\n    tag_205:\n        /* \"#utility.yul\":4229:4232   */\n      dup3\n        /* \"#utility.yul\":4222:4267   */\n      mstore\n        /* \"#utility.yul\":4131:4273   */\n      pop\n      pop\n      jump\t// out\n        /* \"#utility.yul\":4279:5054   */\n    tag_44:\n        /* \"#utility.yul\":4514:4518   */\n      0x00\n        /* \"#utility.yul\":4552:4555   */\n      0xa0\n        /* \"#utility.yul\":4541:4550   */\n      dup3\n        /* \"#utility.yul\":4537:4556   */\n      add\n        /* \"#utility.yul\":4529:4556   */\n      swap1\n      pop\n        /* \"#utility.yul\":4602:4611   */\n      dup2\n        /* \"#utility.yul\":4596:4600   */\n      dup2\n        /* \"#utility.yul\":4592:4612   */\n      sub\n        /* \"#utility.yul\":4588:4589   */\n      0x00\n        /* \"#utility.yul\":4577:4586   */\n      dup4\n        /* \"#utility.yul\":4573:4590   */\n      add\n        /* \"#utility.yul\":4566:4613   */\n      mstore\n        /* \"#utility.yul\":4630:4708   */\n      tag_207\n        /* \"#utility.yul\":4703:4707   */\n      dup2\n        /* \"#utility.yul\":4694:4700   */\n      dup9\n        /* \"#utility.yul\":4630:4708   */\n      tag_119\n      jump\t// in\n    tag_207:\n        /* \"#utility.yul\":4622:4708   */\n      swap1\n      pop\n        /* \"#utility.yul\":4718:4790   */\n      tag_208\n        /* \"#utility.yul\":4786:4788   */\n      0x20\n        /* \"#utility.yul\":4775:4784   */\n      dup4\n        /* \"#utility.yul\":4771:4789   */\n      add\n        /* \"#utility.yul\":4762:4768   */\n      dup8\n        /* \"#utility.yul\":4718:4790   */\n      tag_113\n      jump\t// in\n    tag_208:\n        /* \"#utility.yul\":4800:4888   */\n      tag_209\n        /* \"#utility.yul\":4884:4886   */\n      0x40\n        /* \"#utility.yul\":4873:4882   */\n      dup4\n        /* \"#utility.yul\":4869:4887   */\n      add\n        /* \"#utility.yul\":4860:4866   */\n      dup7\n        /* \"#utility.yul\":4800:4888   */\n      tag_121\n      jump\t// in\n    tag_209:\n        /* \"#utility.yul\":4898:4964   */\n      tag_210\n        /* \"#utility.yul\":4960:4962   */\n      0x60\n        /* \"#utility.yul\":4949:4958   */\n      dup4\n        /* \"#utility.yul\":4945:4963   */\n      add\n        /* \"#utility.yul\":4936:4942   */\n      dup6\n        /* \"#utility.yul\":4898:4964   */\n      tag_112\n      jump\t// in\n    tag_210:\n        /* \"#utility.yul\":4974:5047   */\n      tag_211\n        /* \"#utility.yul\":5042:5045   */\n      0x80\n        /* \"#utility.yul\":5031:5040   */\n      dup4\n        /* \"#utility.yul\":5027:5046   */\n      add\n        /* \"#utility.yul\":5018:5024   */\n      dup5\n        /* \"#utility.yul\":4974:5047   */\n      tag_113\n      jump\t// in\n    tag_211:\n        /* \"#utility.yul\":4279:5054   */\n      swap7\n      swap6\n      pop\n      pop\n      pop\n      pop\n      pop\n      pop\n      jump\t// out\n        /* \"#utility.yul\":5060:5177   */\n    tag_122:\n        /* \"#utility.yul\":5169:5170   */\n      0x00\n        /* \"#utility.yul\":5166:5167   */\n      dup1\n        /* \"#utility.yul\":5159:5171   */\n      revert\n        /* \"#utility.yul\":5183:5300   */\n    tag_123:\n        /* \"#utility.yul\":5292:5293   */\n      0x00\n        /* \"#utility.yul\":5289:5290   */\n      dup1\n        /* \"#utility.yul\":5282:5294   */\n      revert\n        /* \"#utility.yul\":5306:5486   */\n    tag_124:\n        /* \"#utility.yul\":5354:5431   */\n      0x4e487b7100000000000000000000000000000000000000000000000000000000\n        /* \"#utility.yul\":5351:5352   */\n      0x00\n        /* \"#utility.yul\":5344:5432   */\n      mstore\n        /* \"#utility.yul\":5451:5455   */\n      0x41\n        /* \"#utility.yul\":5448:5449   */\n      0x04\n        /* \"#utility.yul\":5441:5456   */\n      mstore\n        /* \"#utility.yul\":5475:5479   */\n      0x24\n        /* \"#utility.yul\":5472:5473   */\n      0x00\n        /* \"#utility.yul\":5465:5480   */\n      revert\n        /* \"#utility.yul\":5492:5773   */\n    tag_125:\n        /* \"#utility.yul\":5575:5602   */\n      tag_216\n        /* \"#utility.yul\":5597:5601   */\n      dup3\n        /* \"#utility.yul\":5575:5602   */\n      tag_118\n      jump\t// in\n    tag_216:\n        /* \"#utility.yul\":5567:5573   */\n      dup2\n        /* \"#utility.yul\":5563:5603   */\n      add\n        /* \"#utility.yul\":5705:5711   */\n      dup2\n        /* \"#utility.yul\":5693:5703   */\n      dup2\n        /* \"#utility.yul\":5690:5712   */\n      lt\n        /* \"#utility.yul\":5669:5687   */\n      0xffffffffffffffff\n        /* \"#utility.yul\":5657:5667   */\n      dup3\n        /* \"#utility.yul\":5654:5688   */\n      gt\n        /* \"#utility.yul\":5651:5713   */\n      or\n        /* \"#utility.yul\":5648:5736   */\n      iszero\n      tag_217\n      jumpi\n        /* \"#utility.yul\":5716:5734   */\n      tag_218\n      tag_124\n      jump\t// in\n    tag_218:\n        /* \"#utility.yul\":5648:5736   */\n    tag_217:\n        /* \"#utility.yul\":5756:5766   */\n      dup1\n        /* \"#utility.yul\":5752:5754   */\n      0x40\n        /* \"#utility.yul\":5745:5767   */\n      mstore\n        /* \"#utility.yul\":5535:5773   */\n      pop\n        /* \"#utility.yul\":5492:5773   */\n      pop\n      pop\n      jump\t// out\n        /* \"#utility.yul\":5779:5908   */\n    tag_126:\n        /* \"#utility.yul\":5813:5819   */\n      0x00\n        /* \"#utility.yul\":5840:5860   */\n      tag_220\n      tag_101\n      jump\t// in\n    tag_220:\n        /* \"#utility.yul\":5830:5860   */\n      swap1\n      pop\n        /* \"#utility.yul\":5869:5902   */\n      tag_221\n        /* \"#utility.yul\":5897:5901   */\n      dup3\n        /* \"#utility.yul\":5889:5895   */\n      dup3\n        /* \"#utility.yul\":5869:5902   */\n      tag_125\n      jump\t// in\n    tag_221:\n        /* \"#utility.yul\":5779:5908   */\n      swap2\n      swap1\n      pop\n      jump\t// out\n        /* \"#utility.yul\":5914:6222   */\n    tag_127:\n        /* \"#utility.yul\":5976:5980   */\n      0x00\n        /* \"#utility.yul\":6066:6084   */\n      0xffffffffffffffff\n        /* \"#utility.yul\":6058:6064   */\n      dup3\n        /* \"#utility.yul\":6055:6085   */\n      gt\n        /* \"#utility.yul\":6052:6108   */\n      iszero\n      tag_223\n      jumpi\n        /* \"#utility.yul\":6088:6106   */\n      tag_224\n      tag_124\n      jump\t// in\n    tag_224:\n        /* \"#utility.yul\":6052:6108   */\n    tag_223:\n        /* \"#utility.yul\":6126:6155   */\n      tag_225\n        /* \"#utility.yul\":6148:6154   */\n      dup3\n        /* \"#utility.yul\":6126:6155   */\n      tag_118\n      jump\t// in\n    tag_225:\n        /* \"#utility.yul\":6118:6155   */\n      swap1\n      pop\n        /* \"#utility.yul\":6210:6214   */\n      0x20\n        /* \"#utility.yul\":6204:6208   */\n      dup2\n        /* \"#utility.yul\":6200:6215   */\n      add\n        /* \"#utility.yul\":6192:6215   */\n      swap1\n      pop\n        /* \"#utility.yul\":5914:6222   */\n      swap2\n      swap1\n      pop\n      jump\t// out\n        /* \"#utility.yul\":6228:6374   */\n    tag_128:\n        /* \"#utility.yul\":6325:6331   */\n      dup3\n        /* \"#utility.yul\":6320:6323   */\n      dup2\n        /* \"#utility.yul\":6315:6318   */\n      dup4\n        /* \"#utility.yul\":6302:6332   */\n      calldatacopy\n        /* \"#utility.yul\":6366:6367   */\n      0x00\n        /* \"#utility.yul\":6357:6363   */\n      dup4\n        /* \"#utility.yul\":6352:6355   */\n      dup4\n        /* \"#utility.yul\":6348:6364   */\n      add\n        /* \"#utility.yul\":6341:6368   */\n      mstore\n        /* \"#utility.yul\":6228:6374   */\n      pop\n      pop\n      pop\n      jump\t// out\n        /* \"#utility.yul\":6380:6805   */\n    tag_129:\n        /* \"#utility.yul\":6458:6463   */\n      0x00\n        /* \"#utility.yul\":6483:6549   */\n      tag_228\n        /* \"#utility.yul\":6499:6548   */\n      tag_229\n        /* \"#utility.yul\":6541:6547   */\n      dup5\n        /* \"#utility.yul\":6499:6548   */\n      tag_127\n      jump\t// in\n    tag_229:\n        /* \"#utility.yul\":6483:6549   */\n      tag_126\n      jump\t// in\n    tag_228:\n        /* \"#utility.yul\":6474:6549   */\n      swap1\n      pop\n        /* \"#utility.yul\":6572:6578   */\n      dup3\n        /* \"#utility.yul\":6565:6570   */\n      dup2\n        /* \"#utility.yul\":6558:6579   */\n      mstore\n        /* \"#utility.yul\":6610:6614   */\n      0x20\n        /* \"#utility.yul\":6603:6608   */\n      dup2\n        /* \"#utility.yul\":6599:6615   */\n      add\n        /* \"#utility.yul\":6648:6651   */\n      dup5\n        /* \"#utility.yul\":6639:6645   */\n      dup5\n        /* \"#utility.yul\":6634:6637   */\n      dup5\n        /* \"#utility.yul\":6630:6646   */\n      add\n        /* \"#utility.yul\":6627:6652   */\n      gt\n        /* \"#utility.yul\":6624:6736   */\n      iszero\n      tag_230\n      jumpi\n        /* \"#utility.yul\":6655:6734   */\n      tag_231\n      tag_123\n      jump\t// in\n    tag_231:\n        /* \"#utility.yul\":6624:6736   */\n    tag_230:\n        /* \"#utility.yul\":6745:6799   */\n      tag_232\n        /* \"#utility.yul\":6792:6798   */\n      dup5\n        /* \"#utility.yul\":6787:6790   */\n      dup3\n        /* \"#utility.yul\":6782:6785   */\n      dup6\n        /* \"#utility.yul\":6745:6799   */\n      tag_128\n      jump\t// in\n    tag_232:\n        /* \"#utility.yul\":6464:6805   */\n      pop\n        /* \"#utility.yul\":6380:6805   */\n      swap4\n      swap3\n      pop\n      pop\n      pop\n      jump\t// out\n        /* \"#utility.yul\":6825:7165   */\n    tag_130:\n        /* \"#utility.yul\":6881:6886   */\n      0x00\n        /* \"#utility.yul\":6930:6933   */\n      dup3\n        /* \"#utility.yul\":6923:6927   */\n      0x1f\n        /* \"#utility.yul\":6915:6921   */\n      dup4\n        /* \"#utility.yul\":6911:6928   */\n      add\n        /* \"#utility.yul\":6907:6934   */\n      slt\n        /* \"#utility.yul\":6897:7019   */\n      tag_234\n      jumpi\n        /* \"#utility.yul\":6938:7017   */\n      tag_235\n      tag_122\n      jump\t// in\n    tag_235:\n        /* \"#utility.yul\":6897:7019   */\n    tag_234:\n        /* \"#utility.yul\":7055:7061   */\n      dup2\n        /* \"#utility.yul\":7042:7062   */\n      calldataload\n        /* \"#utility.yul\":7080:7159   */\n      tag_236\n        /* \"#utility.yul\":7155:7158   */\n      dup5\n        /* \"#utility.yul\":7147:7153   */\n      dup3\n        /* \"#utility.yul\":7140:7144   */\n      0x20\n        /* \"#utility.yul\":7132:7138   */\n      dup7\n        /* \"#utility.yul\":7128:7145   */\n      add\n        /* \"#utility.yul\":7080:7159   */\n      tag_129\n      jump\t// in\n    tag_236:\n        /* \"#utility.yul\":7071:7159   */\n      swap2\n      pop\n        /* \"#utility.yul\":6887:7165   */\n      pop\n        /* \"#utility.yul\":6825:7165   */\n      swap3\n      swap2\n      pop\n      pop\n      jump\t// out\n        /* \"#utility.yul\":7171:7309   */\n    tag_131:\n        /* \"#utility.yul\":7252:7284   */\n      tag_238\n        /* \"#utility.yul\":7278:7283   */\n      dup2\n        /* \"#utility.yul\":7252:7284   */\n      tag_120\n      jump\t// in\n    tag_238:\n        /* \"#utility.yul\":7245:7250   */\n      dup2\n        /* \"#utility.yul\":7242:7285   */\n      eq\n        /* \"#utility.yul\":7232:7303   */\n      tag_239\n      jumpi\n        /* \"#utility.yul\":7299:7300   */\n      0x00\n        /* \"#utility.yul\":7296:7297   */\n      dup1\n        /* \"#utility.yul\":7289:7301   */\n      revert\n        /* \"#utility.yul\":7232:7303   */\n    tag_239:\n        /* \"#utility.yul\":7171:7309   */\n      pop\n      jump\t// out\n        /* \"#utility.yul\":7315:7470   */\n    tag_132:\n        /* \"#utility.yul\":7369:7374   */\n      0x00\n        /* \"#utility.yul\":7407:7413   */\n      dup2\n        /* \"#utility.yul\":7394:7414   */\n      calldataload\n        /* \"#utility.yul\":7385:7414   */\n      swap1\n      pop\n        /* \"#utility.yul\":7423:7464   */\n      tag_241\n        /* \"#utility.yul\":7458:7463   */\n      dup2\n        /* \"#utility.yul\":7423:7464   */\n      tag_131\n      jump\t// in\n    tag_241:\n        /* \"#utility.yul\":7315:7470   */\n      swap3\n      swap2\n      pop\n      pop\n      jump\t// out\n        /* \"#utility.yul\":7476:8291   */\n    tag_48:\n        /* \"#utility.yul\":7571:7577   */\n      0x00\n        /* \"#utility.yul\":7579:7585   */\n      dup1\n        /* \"#utility.yul\":7587:7593   */\n      0x00\n        /* \"#utility.yul\":7636:7638   */\n      0x60\n        /* \"#utility.yul\":7624:7633   */\n      dup5\n        /* \"#utility.yul\":7615:7622   */\n      dup7\n        /* \"#utility.yul\":7611:7634   */\n      sub\n        /* \"#utility.yul\":7607:7639   */\n      slt\n        /* \"#utility.yul\":7604:7723   */\n      iszero\n      tag_243\n      jumpi\n        /* \"#utility.yul\":7642:7721   */\n      tag_244\n      tag_102\n      jump\t// in\n    tag_244:\n        /* \"#utility.yul\":7604:7723   */\n    tag_243:\n        /* \"#utility.yul\":7790:7791   */\n      0x00\n        /* \"#utility.yul\":7779:7788   */\n      dup5\n        /* \"#utility.yul\":7775:7792   */\n      add\n        /* \"#utility.yul\":7762:7793   */\n      calldataload\n        /* \"#utility.yul\":7820:7838   */\n      0xffffffffffffffff\n        /* \"#utility.yul\":7812:7818   */\n      dup2\n        /* \"#utility.yul\":7809:7839   */\n      gt\n        /* \"#utility.yul\":7806:7923   */\n      iszero\n      tag_245\n      jumpi\n        /* \"#utility.yul\":7842:7921   */\n      tag_246\n      tag_103\n      jump\t// in\n    tag_246:\n        /* \"#utility.yul\":7806:7923   */\n    tag_245:\n        /* \"#utility.yul\":7947:8010   */\n      tag_247\n        /* \"#utility.yul\":8002:8009   */\n      dup7\n        /* \"#utility.yul\":7993:7999   */\n      dup3\n        /* \"#utility.yul\":7982:7991   */\n      dup8\n        /* \"#utility.yul\":7978:8000   */\n      add\n        /* \"#utility.yul\":7947:8010   */\n      tag_130\n      jump\t// in\n    tag_247:\n        /* \"#utility.yul\":7937:8010   */\n      swap4\n      pop\n        /* \"#utility.yul\":7733:8020   */\n      pop\n        /* \"#utility.yul\":8059:8061   */\n      0x20\n        /* \"#utility.yul\":8085:8138   */\n      tag_248\n        /* \"#utility.yul\":8130:8137   */\n      dup7\n        /* \"#utility.yul\":8121:8127   */\n      dup3\n        /* \"#utility.yul\":8110:8119   */\n      dup8\n        /* \"#utility.yul\":8106:8128   */\n      add\n        /* \"#utility.yul\":8085:8138   */\n      tag_106\n      jump\t// in\n    tag_248:\n        /* \"#utility.yul\":8075:8138   */\n      swap3\n      pop\n        /* \"#utility.yul\":8030:8148   */\n      pop\n        /* \"#utility.yul\":8187:8189   */\n      0x40\n        /* \"#utility.yul\":8213:8274   */\n      tag_249\n        /* \"#utility.yul\":8266:8273   */\n      dup7\n        /* \"#utility.yul\":8257:8263   */\n      dup3\n        /* \"#utility.yul\":8246:8255   */\n      dup8\n        /* \"#utility.yul\":8242:8264   */\n      add\n        /* \"#utility.yul\":8213:8274   */\n      tag_132\n      jump\t// in\n    tag_249:\n        /* \"#utility.yul\":8203:8274   */\n      swap2\n      pop\n        /* \"#utility.yul\":8158:8284   */\n      pop\n        /* \"#utility.yul\":7476:8291   */\n      swap3\n      pop\n      swap3\n      pop\n      swap3\n      jump\t// out\n        /* \"#utility.yul\":8297:8961   */\n    tag_54:\n        /* \"#utility.yul\":8502:8506   */\n      0x00\n        /* \"#utility.yul\":8540:8543   */\n      0xa0\n        /* \"#utility.yul\":8529:8538   */\n      dup3\n        /* \"#utility.yul\":8525:8544   */\n      add\n        /* \"#utility.yul\":8517:8544   */\n      swap1\n      pop\n        /* \"#utility.yul\":8554:8625   */\n      tag_251\n        /* \"#utility.yul\":8622:8623   */\n      0x00\n        /* \"#utility.yul\":8611:8620   */\n      dup4\n        /* \"#utility.yul\":8607:8624   */\n      add\n        /* \"#utility.yul\":8598:8604   */\n      dup9\n        /* \"#utility.yul\":8554:8625   */\n      tag_113\n      jump\t// in\n    tag_251:\n        /* \"#utility.yul\":8635:8707   */\n      tag_252\n        /* \"#utility.yul\":8703:8705   */\n      0x20\n        /* \"#utility.yul\":8692:8701   */\n      dup4\n        /* \"#utility.yul\":8688:8706   */\n      add\n        /* \"#utility.yul\":8679:8685   */\n      dup8\n        /* \"#utility.yul\":8635:8707   */\n      tag_113\n      jump\t// in\n    tag_252:\n        /* \"#utility.yul\":8717:8789   */\n      tag_253\n        /* \"#utility.yul\":8785:8787   */\n      0x40\n        /* \"#utility.yul\":8774:8783   */\n      dup4\n        /* \"#utility.yul\":8770:8788   */\n      add\n        /* \"#utility.yul\":8761:8767   */\n      dup7\n        /* \"#utility.yul\":8717:8789   */\n      tag_113\n      jump\t// in\n    tag_253:\n        /* \"#utility.yul\":8799:8871   */\n      tag_254\n        /* \"#utility.yul\":8867:8869   */\n      0x60\n        /* \"#utility.yul\":8856:8865   */\n      dup4\n        /* \"#utility.yul\":8852:8870   */\n      add\n        /* \"#utility.yul\":8843:8849   */\n      dup6\n        /* \"#utility.yul\":8799:8871   */\n      tag_113\n      jump\t// in\n    tag_254:\n        /* \"#utility.yul\":8881:8954   */\n      tag_255\n        /* \"#utility.yul\":8949:8952   */\n      0x80\n        /* \"#utility.yul\":8938:8947   */\n      dup4\n        /* \"#utility.yul\":8934:8953   */\n      add\n        /* \"#utility.yul\":8925:8931   */\n      dup5\n        /* \"#utility.yul\":8881:8954   */\n      tag_114\n      jump\t// in\n    tag_255:\n        /* \"#utility.yul\":8297:8961   */\n      swap7\n      swap6\n      pop\n      pop\n      pop\n      pop\n      pop\n      pop\n      jump\t// out\n        /* \"#utility.yul\":8967:9147   */\n    tag_133:\n        /* \"#utility.yul\":9015:9092   */\n      0x4e487b7100000000000000000000000000000000000000000000000000000000\n        /* \"#utility.yul\":9012:9013   */\n      0x00\n        /* \"#utility.yul\":9005:9093   */\n      mstore\n        /* \"#utility.yul\":9112:9116   */\n      0x12\n        /* \"#utility.yul\":9109:9110   */\n      0x04\n        /* \"#utility.yul\":9102:9117   */\n      mstore\n        /* \"#utility.yul\":9136:9140   */\n      0x24\n        /* \"#utility.yul\":9133:9134   */\n      0x00\n        /* \"#utility.yul\":9126:9141   */\n      revert\n        /* \"#utility.yul\":9153:9333   */\n    tag_134:\n        /* \"#utility.yul\":9201:9278   */\n      0x4e487b7100000000000000000000000000000000000000000000000000000000\n        /* \"#utility.yul\":9198:9199   */\n      0x00\n        /* \"#utility.yul\":9191:9279   */\n      mstore\n        /* \"#utility.yul\":9298:9302   */\n      0x11\n        /* \"#utility.yul\":9295:9296   */\n      0x04\n        /* \"#utility.yul\":9288:9303   */\n      mstore\n        /* \"#utility.yul\":9322:9326   */\n      0x24\n        /* \"#utility.yul\":9319:9320   */\n      0x00\n        /* \"#utility.yul\":9312:9327   */\n      revert\n        /* \"#utility.yul\":9339:9524   */\n    tag_71:\n        /* \"#utility.yul\":9379:9380   */\n      0x00\n        /* \"#utility.yul\":9396:9416   */\n      tag_259\n        /* \"#utility.yul\":9414:9415   */\n      dup3\n        /* \"#utility.yul\":9396:9416   */\n      tag_104\n      jump\t// in\n    tag_259:\n        /* \"#utility.yul\":9391:9416   */\n      swap2\n      pop\n        /* \"#utility.yul\":9430:9450   */\n      tag_260\n        /* \"#utility.yul\":9448:9449   */\n      dup4\n        /* \"#utility.yul\":9430:9450   */\n      tag_104\n      jump\t// in\n    tag_260:\n        /* \"#utility.yul\":9425:9450   */\n      swap3\n      pop\n        /* \"#utility.yul\":9469:9470   */\n      dup3\n        /* \"#utility.yul\":9459:9494   */\n      tag_261\n      jumpi\n        /* \"#utility.yul\":9474:9492   */\n      tag_262\n      tag_133\n      jump\t// in\n    tag_262:\n        /* \"#utility.yul\":9459:9494   */\n    tag_261:\n        /* \"#utility.yul\":9516:9517   */\n      dup3\n        /* \"#utility.yul\":9513:9514   */\n      dup3\n        /* \"#utility.yul\":9509:9518   */\n      div\n        /* \"#utility.yul\":9504:9518   */\n      swap1\n      pop\n        /* \"#utility.yul\":9339:9524   */\n      swap3\n      swap2\n      pop\n      pop\n      jump\t// out\n        /* \"#utility.yul\":9530:9710   */\n    tag_135:\n        /* \"#utility.yul\":9578:9655   */\n      0x4e487b7100000000000000000000000000000000000000000000000000000000\n        /* \"#utility.yul\":9575:9576   */\n      0x00\n        /* \"#utility.yul\":9568:9656   */\n      mstore\n        /* \"#utility.yul\":9675:9679   */\n      0x22\n        /* \"#utility.yul\":9672:9673   */\n      0x04\n        /* \"#utility.yul\":9665:9680   */\n      mstore\n        /* \"#utility.yul\":9699:9703   */\n      0x24\n        /* \"#utility.yul\":9696:9697   */\n      0x00\n        /* \"#utility.yul\":9689:9704   */\n      revert\n        /* \"#utility.yul\":9716:10036   */\n    tag_78:\n        /* \"#utility.yul\":9760:9766   */\n      0x00\n        /* \"#utility.yul\":9797:9798   */\n      0x02\n        /* \"#utility.yul\":9791:9795   */\n      dup3\n        /* \"#utility.yul\":9787:9799   */\n      div\n        /* \"#utility.yul\":9777:9799   */\n      swap1\n      pop\n        /* \"#utility.yul\":9844:9845   */\n      0x01\n        /* \"#utility.yul\":9838:9842   */\n      dup3\n        /* \"#utility.yul\":9834:9846   */\n      and\n        /* \"#utility.yul\":9865:9883   */\n      dup1\n        /* \"#utility.yul\":9855:9936   */\n      tag_265\n      jumpi\n        /* \"#utility.yul\":9921:9925   */\n      0x7f\n        /* \"#utility.yul\":9913:9919   */\n      dup3\n        /* \"#utility.yul\":9909:9926   */\n      and\n        /* \"#utility.yul\":9899:9926   */\n      swap2\n      pop\n        /* \"#utility.yul\":9855:9936   */\n    tag_265:\n        /* \"#utility.yul\":9983:9985   */\n      0x20\n        /* \"#utility.yul\":9975:9981   */\n      dup3\n        /* \"#utility.yul\":9972:9986   */\n      lt\n        /* \"#utility.yul\":9952:9970   */\n      dup2\n        /* \"#utility.yul\":9949:9987   */\n      sub\n        /* \"#utility.yul\":9946:10030   */\n      tag_266\n      jumpi\n        /* \"#utility.yul\":10002:10020   */\n      tag_267\n      tag_135\n      jump\t// in\n    tag_267:\n        /* \"#utility.yul\":9946:10030   */\n    tag_266:\n        /* \"#utility.yul\":9767:10036   */\n      pop\n        /* \"#utility.yul\":9716:10036   */\n      swap2\n      swap1\n      pop\n      jump\t// out\n        /* \"#utility.yul\":10042:10275   */\n    tag_87:\n        /* \"#utility.yul\":10081:10084   */\n      0x00\n        /* \"#utility.yul\":10104:10128   */\n      tag_269\n        /* \"#utility.yul\":10122:10127   */\n      dup3\n        /* \"#utility.yul\":10104:10128   */\n      tag_104\n      jump\t// in\n    tag_269:\n        /* \"#utility.yul\":10095:10128   */\n      swap2\n      pop\n        /* \"#utility.yul\":10150:10216   */\n      0xffffffffffffffffffffffffffffffffffffffffffffffffffffffffffffffff\n        /* \"#utility.yul\":10143:10148   */\n      dup3\n        /* \"#utility.yul\":10140:10217   */\n      sub\n        /* \"#utility.yul\":10137:10240   */\n      tag_270\n      jumpi\n        /* \"#utility.yul\":10220:10238   */\n      tag_271\n      tag_134\n      jump\t// in\n    tag_271:\n        /* \"#utility.yul\":10137:10240   */\n    tag_270:\n        /* \"#utility.yul\":10267:10268   */\n      0x01\n        /* \"#utility.yul\":10260:10265   */\n      dup3\n        /* \"#utility.yul\":10256:10269   */\n      add\n        /* \"#utility.yul\":10249:10269   */\n      swap1\n      pop\n        /* \"#utility.yul\":10042:10275   */\n      swap2\n      swap1\n      pop\n      jump\t// out\n        /* \"#utility.yul\":10281:10422   */\n    tag_136:\n        /* \"#utility.yul\":10330:10334   */\n      0x00\n        /* \"#utility.yul\":10353:10356   */\n      dup2\n        /* \"#utility.yul\":10345:10356   */\n      swap1\n      pop\n        /* \"#utility.yul\":10376:10379   */\n      dup2\n        /* \"#utility.yul\":10373:10374   */\n      0x00\n        /* \"#utility.yul\":10366:10380   */\n      mstore\n        /* \"#utility.yul\":10410:10414   */\n      0x20\n        /* \"#utility.yul\":10407:10408   */\n      0x00\n        /* \"#utility.yul\":10397:10415   */\n      keccak256\n        /* \"#utility.yul\":10389:10415   */\n      swap1\n      pop\n        /* \"#utility.yul\":10281:10422   */\n      swap2\n      swap1\n      pop\n      jump\t// out\n        /* \"#utility.yul\":10428:10521   */\n    tag_137:\n        /* \"#utility.yul\":10465:10471   */\n      0x00\n        /* \"#utility.yul\":10512:10514   */\n      0x20\n        /* \"#utility.yul\":10507:10509   */\n      0x1f\n        /* \"#utility.yul\":10500:10505   */\n      dup4\n        /* \"#utility.yul\":10496:10510   */\n      add\n        /* \"#utility.yul\":10492:10515   */\n      div\n        /* \"#utility.yul\":10482:10515   */\n      swap1\n      pop\n        /* \"#utility.yul\":10428:10521   */\n      swap2\n      swap1\n      pop\n      jump\t// out\n        /* \"#utility.yul\":10527:10634   */\n    tag_138:\n        /* \"#utility.yul\":10571:10579   */\n      0x00\n        /* \"#utility.yul\":10621:10626   */\n      dup3\n        /* \"#utility.yul\":10615:10619   */\n      dup3\n        /* \"#utility.yul\":10611:10627   */\n      shl\n        /* \"#utility.yul\":10590:10627   */\n      swap1\n      pop\n        /* \"#utility.yul\":10527:10634   */\n      swap3\n      swap2\n      pop\n      pop\n      jump\t// out\n        /* \"#utility.yul\":10640:11033   */\n    tag_139:\n        /* \"#utility.yul\":10709:10715   */\n      0x00\n        /* \"#utility.yul\":10759:10760   */\n      0x08\n        /* \"#utility.yul\":10747:10757   */\n      dup4\n        /* \"#utility.yul\":10743:10761   */\n      mul\n        /* \"#utility.yul\":10782:10879   */\n      tag_276\n        /* \"#utility.yul\":10812:10878   */\n      0xffffffffffffffffffffffffffffffffffffffffffffffffffffffffffffffff\n        /* \"#utility.yul\":10801:10810   */\n      dup3\n        /* \"#utility.yul\":10782:10879   */\n      tag_138\n      jump\t// in\n    tag_276:\n        /* \"#utility.yul\":10900:10939   */\n      tag_277\n        /* \"#utility.yul\":10930:10938   */\n      dup7\n        /* \"#utility.yul\":10919:10928   */\n      dup4\n        /* \"#utility.yul\":10900:10939   */\n      tag_138\n      jump\t// in\n    tag_277:\n        /* \"#utility.yul\":10888:10939   */\n      swap6\n      pop\n        /* \"#utility.yul\":10972:10976   */\n      dup1\n        /* \"#utility.yul\":10968:10977   */\n      not\n        /* \"#utility.yul\":10961:10966   */\n      dup5\n        /* \"#utility.yul\":10957:10978   */\n      and\n        /* \"#utility.yul\":10948:10978   */\n      swap4\n      pop\n        /* \"#utility.yul\":11021:11025   */\n      dup1\n        /* \"#utility.yul\":11011:11019   */\n      dup7\n        /* \"#utility.yul\":11007:11026   */\n      and\n        /* \"#utility.yul\":11000:11005   */\n      dup5\n        /* \"#utility.yul\":10997:11027   */\n      or\n        /* \"#utility.yul\":10987:11027   */\n      swap3\n      pop\n        /* \"#utility.yul\":10716:11033   */\n      pop\n      pop\n        /* \"#utility.yul\":10640:11033   */\n      swap4\n      swap3\n      pop\n      pop\n      pop\n      jump\t// out\n        /* \"#utility.yul\":11039:11099   */\n    tag_140:\n        /* \"#utility.yul\":11067:11070   */\n      0x00\n        /* \"#utility.yul\":11088:11093   */\n      dup2\n        /* \"#utility.yul\":11081:11093   */\n      swap1\n      pop\n        /* \"#utility.yul\":11039:11099   */\n      swap2\n      swap1\n      pop\n      jump\t// out\n        /* \"#utility.yul\":11105:11247   */\n    tag_141:\n        /* \"#utility.yul\":11155:11164   */\n      0x00\n        /* \"#utility.yul\":11188:11241   */\n      tag_280\n        /* \"#utility.yul\":11206:11240   */\n      tag_281\n        /* \"#utility.yul\":11215:11239   */\n      tag_282\n        /* \"#utility.yul\":11233:11238   */\n      dup5\n        /* \"#utility.yul\":11215:11239   */\n      tag_104\n      jump\t// in\n    tag_282:\n        /* \"#utility.yul\":11206:11240   */\n      tag_140\n      jump\t// in\n    tag_281:\n        /* \"#utility.yul\":11188:11241   */\n      tag_104\n      jump\t// in\n    tag_280:\n        /* \"#utility.yul\":11175:11241   */\n      swap1\n      pop\n        /* \"#utility.yul\":11105:11247   */\n      swap2\n      swap1\n      pop\n      jump\t// out\n        /* \"#utility.yul\":11253:11328   */\n    tag_142:\n        /* \"#utility.yul\":11296:11299   */\n      0x00\n        /* \"#utility.yul\":11317:11322   */\n      dup2\n        /* \"#utility.yul\":11310:11322   */\n      swap1\n      pop\n        /* \"#utility.yul\":11253:11328   */\n      swap2\n      swap1\n      pop\n      jump\t// out\n        /* \"#utility.yul\":11334:11603   */\n    tag_143:\n        /* \"#utility.yul\":11444:11483   */\n      tag_285\n        /* \"#utility.yul\":11475:11482   */\n      dup4\n        /* \"#utility.yul\":11444:11483   */\n      tag_141\n      jump\t// in\n    tag_285:\n        /* \"#utility.yul\":11505:11596   */\n      tag_286\n        /* \"#utility.yul\":11554:11595   */\n      tag_287\n        /* \"#utility.yul\":11578:11594   */\n      dup3\n        /* \"#utility.yul\":11554:11595   */\n      tag_142\n      jump\t// in\n    tag_287:\n        /* \"#utility.yul\":11546:11552   */\n      dup5\n        /* \"#utility.yul\":11539:11543   */\n      dup5\n        /* \"#utility.yul\":11533:11544   */\n      sload\n        /* \"#utility.yul\":11505:11596   */\n      tag_139\n      jump\t// in\n    tag_286:\n        /* \"#utility.yul\":11499:11503   */\n      dup3\n        /* \"#utility.yul\":11492:11597   */\n      sstore\n        /* \"#utility.yul\":11410:11603   */\n      pop\n        /* \"#utility.yul\":11334:11603   */\n      pop\n      pop\n      pop\n      jump\t// out\n        /* \"#utility.yul\":11609:11682   */\n    tag_144:\n        /* \"#utility.yul\":11654:11657   */\n      0x00\n        /* \"#utility.yul\":11609:11682   */\n      swap1\n      jump\t// out\n        /* \"#utility.yul\":11688:11877   */\n    tag_145:\n        /* \"#utility.yul\":11765:11797   */\n      tag_290\n      tag_144\n      jump\t// in\n    tag_290:\n        /* \"#utility.yul\":11806:11871   */\n      tag_291\n        /* \"#utility.yul\":11864:11870   */\n      dup2\n        /* \"#utility.yul\":11856:11862   */\n      dup5\n        /* \"#utility.yul\":11850:11854   */\n      dup5\n        /* \"#utility.yul\":11806:11871   */\n      tag_143\n      jump\t// in\n    tag_291:\n        /* \"#utility.yul\":11741:11877   */\n      pop\n        /* \"#utility.yul\":11688:11877   */\n      pop\n      pop\n      jump\t// out\n        /* \"#utility.yul\":11883:12069   */\n    tag_146:\n        /* \"#utility.yul\":11943:12063   */\n    tag_293:\n        /* \"#utility.yul\":11960:11963   */\n      dup2\n        /* \"#utility.yul\":11953:11958   */\n      dup2\n        /* \"#utility.yul\":11950:11964   */\n      lt\n        /* \"#utility.yul\":11943:12063   */\n      iszero\n      tag_295\n      jumpi\n        /* \"#utility.yul\":12014:12053   */\n      tag_296\n        /* \"#utility.yul\":12051:12052   */\n      0x00\n        /* \"#utility.yul\":12044:12049   */\n      dup3\n        /* \"#utility.yul\":12014:12053   */\n      tag_145\n      jump\t// in\n    tag_296:\n        /* \"#utility.yul\":11987:11988   */\n      0x01\n        /* \"#utility.yul\":11980:11985   */\n      dup2\n        /* \"#utility.yul\":11976:11989   */\n      add\n        /* \"#utility.yul\":11967:11989   */\n      swap1\n      pop\n        /* \"#utility.yul\":11943:12063   */\n      jump(tag_293)\n    tag_295:\n        /* \"#utility.yul\":11883:12069   */\n      pop\n      pop\n      jump\t// out\n        /* \"#utility.yul\":12075:12618   */\n    tag_147:\n        /* \"#utility.yul\":12176:12178   */\n      0x1f\n        /* \"#utility.yul\":12171:12174   */\n      dup3\n        /* \"#utility.yul\":12168:12179   */\n      gt\n        /* \"#utility.yul\":12165:12611   */\n      iszero\n      tag_298\n      jumpi\n        /* \"#utility.yul\":12210:12248   */\n      tag_299\n        /* \"#utility.yul\":12242:12247   */\n      dup2\n        /* \"#utility.yul\":12210:12248   */\n      tag_136\n      jump\t// in\n    tag_299:\n        /* \"#utility.yul\":12294:12323   */\n      tag_300\n        /* \"#utility.yul\":12312:12322   */\n      dup5\n        /* \"#utility.yul\":12294:12323   */\n      tag_137\n      jump\t// in\n    tag_300:\n        /* \"#utility.yul\":12284:12292   */\n      dup2\n        /* \"#utility.yul\":12280:12324   */\n      add\n        /* \"#utility.yul\":12477:12479   */\n      0x20\n        /* \"#utility.yul\":12465:12475   */\n      dup6\n        /* \"#utility.yul\":12462:12480   */\n      lt\n        /* \"#utility.yul\":12459:12508   */\n      iszero\n      tag_301\n      jumpi\n        /* \"#utility.yul\":12498:12506   */\n      dup2\n        /* \"#utility.yul\":12483:12506   */\n      swap1\n      pop\n        /* \"#utility.yul\":12459:12508   */\n    tag_301:\n        /* \"#utility.yul\":12521:12601   */\n      tag_302\n        /* \"#utility.yul\":12577:12599   */\n      tag_303\n        /* \"#utility.yul\":12595:12598   */\n      dup6\n        /* \"#utility.yul\":12577:12599   */\n      tag_137\n      jump\t// in\n    tag_303:\n        /* \"#utility.yul\":12567:12575   */\n      dup4\n        /* \"#utility.yul\":12563:12600   */\n      add\n        /* \"#utility.yul\":12550:12561   */\n      dup3\n        /* \"#utility.yul\":12521:12601   */\n      tag_146\n      jump\t// in\n    tag_302:\n        /* \"#utility.yul\":12180:12611   */\n      pop\n      pop\n        /* \"#utility.yul\":12165:12611   */\n    tag_298:\n        /* \"#utility.yul\":12075:12618   */\n      pop\n      pop\n      pop\n      jump\t// out\n        /* \"#utility.yul\":12624:12741   */\n    tag_148:\n        /* \"#utility.yul\":12678:12686   */\n      0x00\n        /* \"#utility.yul\":12728:12733   */\n      dup3\n        /* \"#utility.yul\":12722:12726   */\n      dup3\n        /* \"#utility.yul\":12718:12734   */\n      shr\n        /* \"#utility.yul\":12697:12734   */\n      swap1\n      pop\n        /* \"#utility.yul\":12624:12741   */\n      swap3\n      swap2\n      pop\n      pop\n      jump\t// out\n        /* \"#utility.yul\":12747:12916   */\n    tag_149:\n        /* \"#utility.yul\":12791:12797   */\n      0x00\n        /* \"#utility.yul\":12824:12875   */\n      tag_306\n        /* \"#utility.yul\":12872:12873   */\n      0x00\n        /* \"#utility.yul\":12868:12874   */\n      not\n        /* \"#utility.yul\":12860:12865   */\n      dup5\n        /* \"#utility.yul\":12857:12858   */\n      0x08\n        /* \"#utility.yul\":12853:12866   */\n      mul\n        /* \"#utility.yul\":12824:12875   */\n      tag_148\n      jump\t// in\n    tag_306:\n        /* \"#utility.yul\":12820:12876   */\n      not\n        /* \"#utility.yul\":12905:12909   */\n      dup1\n        /* \"#utility.yul\":12899:12903   */\n      dup4\n        /* \"#utility.yul\":12895:12910   */\n      and\n        /* \"#utility.yul\":12885:12910   */\n      swap2\n      pop\n        /* \"#utility.yul\":12798:12916   */\n      pop\n        /* \"#utility.yul\":12747:12916   */\n      swap3\n      swap2\n      pop\n      pop\n      jump\t// out\n        /* \"#utility.yul\":12921:13216   */\n    tag_150:\n        /* \"#utility.yul\":12997:13001   */\n      0x00\n        /* \"#utility.yul\":13143:13172   */\n      tag_308\n        /* \"#utility.yul\":13168:13171   */\n      dup4\n        /* \"#utility.yul\":13162:13166   */\n      dup4\n        /* \"#utility.yul\":13143:13172   */\n      tag_149\n      jump\t// in\n    tag_308:\n        /* \"#utility.yul\":13135:13172   */\n      swap2\n      pop\n        /* \"#utility.yul\":13205:13208   */\n      dup3\n        /* \"#utility.yul\":13202:13203   */\n      0x02\n        /* \"#utility.yul\":13198:13209   */\n      mul\n        /* \"#utility.yul\":13192:13196   */\n      dup3\n        /* \"#utility.yul\":13189:13210   */\n      or\n        /* \"#utility.yul\":13181:13210   */\n      swap1\n      pop\n        /* \"#utility.yul\":12921:13216   */\n      swap3\n      swap2\n      pop\n      pop\n      jump\t// out\n        /* \"#utility.yul\":13221:14616   */\n    tag_89:\n        /* \"#utility.yul\":13338:13375   */\n      tag_310\n        /* \"#utility.yul\":13371:13374   */\n      dup3\n        /* \"#utility.yul\":13338:13375   */\n      tag_115\n      jump\t// in\n    tag_310:\n        /* \"#utility.yul\":13440:13458   */\n      0xffffffffffffffff\n        /* \"#utility.yul\":13432:13438   */\n      dup2\n        /* \"#utility.yul\":13429:13459   */\n      gt\n        /* \"#utility.yul\":13426:13482   */\n      iszero\n      tag_311\n      jumpi\n        /* \"#utility.yul\":13462:13480   */\n      tag_312\n      tag_124\n      jump\t// in\n    tag_312:\n        /* \"#utility.yul\":13426:13482   */\n    tag_311:\n        /* \"#utility.yul\":13506:13544   */\n      tag_313\n        /* \"#utility.yul\":13538:13542   */\n      dup3\n        /* \"#utility.yul\":13532:13543   */\n      sload\n        /* \"#utility.yul\":13506:13544   */\n      tag_78\n      jump\t// in\n    tag_313:\n        /* \"#utility.yul\":13591:13658   */\n      tag_314\n        /* \"#utility.yul\":13651:13657   */\n      dup3\n        /* \"#utility.yul\":13643:13649   */\n      dup3\n        /* \"#utility.yul\":13637:13641   */\n      dup6\n        /* \"#utility.yul\":13591:13658   */\n      tag_147\n      jump\t// in\n    tag_314:\n        /* \"#utility.yul\":13685:13686   */\n      0x00\n        /* \"#utility.yul\":13709:13713   */\n      0x20\n        /* \"#utility.yul\":13696:13713   */\n      swap1\n      pop\n        /* \"#utility.yul\":13741:13743   */\n      0x1f\n        /* \"#utility.yul\":13733:13739   */\n      dup4\n        /* \"#utility.yul\":13730:13744   */\n      gt\n        /* \"#utility.yul\":13758:13759   */\n      0x01\n        /* \"#utility.yul\":13753:14371   */\n      dup2\n      eq\n      tag_316\n      jumpi\n        /* \"#utility.yul\":14415:14416   */\n      0x00\n        /* \"#utility.yul\":14432:14438   */\n      dup5\n        /* \"#utility.yul\":14429:14506   */\n      iszero\n      tag_317\n      jumpi\n        /* \"#utility.yul\":14481:14490   */\n      dup3\n        /* \"#utility.yul\":14476:14479   */\n      dup8\n        /* \"#utility.yul\":14472:14491   */\n      add\n        /* \"#utility.yul\":14466:14492   */\n      mload\n        /* \"#utility.yul\":14457:14492   */\n      swap1\n      pop\n        /* \"#utility.yul\":14429:14506   */\n    tag_317:\n        /* \"#utility.yul\":14532:14599   */\n      tag_318\n        /* \"#utility.yul\":14592:14598   */\n      dup6\n        /* \"#utility.yul\":14585:14590   */\n      dup3\n        /* \"#utility.yul\":14532:14599   */\n      tag_150\n      jump\t// in\n    tag_318:\n        /* \"#utility.yul\":14526:14530   */\n      dup7\n        /* \"#utility.yul\":14519:14600   */\n      sstore\n        /* \"#utility.yul\":14388:14610   */\n      pop\n        /* \"#utility.yul\":13723:14610   */\n      jump(tag_315)\n        /* \"#utility.yul\":13753:14371   */\n    tag_316:\n        /* \"#utility.yul\":13805:13809   */\n      0x1f\n        /* \"#utility.yul\":13801:13810   */\n      not\n        /* \"#utility.yul\":13793:13799   */\n      dup5\n        /* \"#utility.yul\":13789:13811   */\n      and\n        /* \"#utility.yul\":13839:13876   */\n      tag_319\n        /* \"#utility.yul\":13871:13875   */\n      dup7\n        /* \"#utility.yul\":13839:13876   */\n      tag_136\n      jump\t// in\n    tag_319:\n        /* \"#utility.yul\":13898:13899   */\n      0x00\n        /* \"#utility.yul\":13912:14120   */\n    tag_320:\n        /* \"#utility.yul\":13926:13933   */\n      dup3\n        /* \"#utility.yul\":13923:13924   */\n      dup2\n        /* \"#utility.yul\":13920:13934   */\n      lt\n        /* \"#utility.yul\":13912:14120   */\n      iszero\n      tag_322\n      jumpi\n        /* \"#utility.yul\":14005:14014   */\n      dup5\n        /* \"#utility.yul\":14000:14003   */\n      dup10\n        /* \"#utility.yul\":13996:14015   */\n      add\n        /* \"#utility.yul\":13990:14016   */\n      mload\n        /* \"#utility.yul\":13982:13988   */\n      dup3\n        /* \"#utility.yul\":13975:14017   */\n      sstore\n        /* \"#utility.yul\":14056:14057   */\n      0x01\n        /* \"#utility.yul\":14048:14054   */\n      dup3\n        /* \"#utility.yul\":14044:14058   */\n      add\n        /* \"#utility.yul\":14034:14058   */\n      swap2\n      pop\n        /* \"#utility.yul\":14103:14105   */\n      0x20\n        /* \"#utility.yul\":14092:14101   */\n      dup6\n        /* \"#utility.yul\":14088:14106   */\n      add\n        /* \"#utility.yul\":14075:14106   */\n      swap5\n      pop\n        /* \"#utility.yul\":13949:13953   */\n      0x20\n        /* \"#utility.yul\":13946:13947   */\n      dup2\n        /* \"#utility.yul\":13942:13954   */\n      add\n        /* \"#utility.yul\":13937:13954   */\n      swap1\n      pop\n        /* \"#utility.yul\":13912:14120   */\n      jump(tag_320)\n    tag_322:\n        /* \"#utility.yul\":14148:14154   */\n      dup7\n        /* \"#utility.yul\":14139:14146   */\n      dup4\n        /* \"#utility.yul\":14136:14155   */\n      lt\n        /* \"#utility.yul\":14133:14312   */\n      iszero\n      tag_323\n      jumpi\n        /* \"#utility.yul\":14206:14215   */\n      dup5\n        /* \"#utility.yul\":14201:14204   */\n      dup10\n        /* \"#utility.yul\":14197:14216   */\n      add\n        /* \"#utility.yul\":14191:14217   */\n      mload\n        /* \"#utility.yul\":14249:14297   */\n      tag_324\n        /* \"#utility.yul\":14291:14295   */\n      0x1f\n        /* \"#utility.yul\":14283:14289   */\n      dup10\n        /* \"#utility.yul\":14279:14296   */\n      and\n        /* \"#utility.yul\":14268:14277   */\n      dup3\n        /* \"#utility.yul\":14249:14297   */\n      tag_149\n      jump\t// in\n    tag_324:\n        /* \"#utility.yul\":14241:14247   */\n      dup4\n        /* \"#utility.yul\":14234:14298   */\n      sstore\n        /* \"#utility.yul\":14156:14312   */\n      pop\n        /* \"#utility.yul\":14133:14312   */\n    tag_323:\n        /* \"#utility.yul\":14358:14359   */\n      0x01\n        /* \"#utility.yul\":14354:14355   */\n      0x02\n        /* \"#utility.yul\":14346:14352   */\n      dup9\n        /* \"#utility.yul\":14342:14356   */\n      mul\n        /* \"#utility.yul\":14338:14360   */\n      add\n        /* \"#utility.yul\":14332:14336   */\n      dup9\n        /* \"#utility.yul\":14325:14361   */\n      sstore\n        /* \"#utility.yul\":13760:14371   */\n      pop\n      pop\n      pop\n        /* \"#utility.yul\":13723:14610   */\n    tag_315:\n      pop\n        /* \"#utility.yul\":13313:14616   */\n      pop\n      pop\n      pop\n        /* \"#utility.yul\":13221:14616   */\n      pop\n      pop\n      jump\t// out\n\n    auxdata: 0xa2646970667358221220be95a41d15324cee6e3d7a538a157e2735d7ad613b3063d5a93e59da934caf4d64736f6c63430008110033\n}\n","bytecode":{"linkReferences":{},"object":"60806040523480156200001157600080fd5b506040516200135038038062001350833981810160405281019062000037919062000133565b8160048190555080600360006101000a81548173ffffffffffffffffffffffffffffffffffffffff021916908373ffffffffffffffffffffffffffffffffffffffff1602179055506000808190555050506200017a565b600080fd5b6000819050919050565b620000a88162000093565b8114620000b457600080fd5b50565b600081519050620000c8816200009d565b92915050565b600073ffffffffffffffffffffffffffffffffffffffff82169050919050565b6000620000fb82620000ce565b9050919050565b6200010d81620000ee565b81146200011957600080fd5b50565b6000815190506200012d8162000102565b92915050565b600080604083850312156200014d576200014c6200008e565b5b60006200015d85828601620000b7565b925050602062000170858286016200011c565b9150509250929050565b6111c6806200018a6000396000f3fe60806040526004361061009c5760003560e01c806381d12c581161006457806381d12c581461017b5780638a9cfd55146101bc578063bb54f1b5146101e5578063d7bb99ba14610214578063d7d1bbdb1461021e578063eda6eb6c146102475761009c565b806303441006146100a15780631d0d35f5146100bd5780633e610fa6146100fa578063481c6a75146101255780634b8cd04114610150575b600080fd5b6100bb60048036038101906100b6919061096b565b610284565b005b3480156100c957600080fd5b506100e460048036038101906100df91906109f6565b6103bf565b6040516100f19190610a3e565b60405180910390f35b34801561010657600080fd5b5061010f61041c565b60405161011c9190610a68565b60405180910390f35b34801561013157600080fd5b5061013a610422565b6040516101479190610a92565b60405180910390f35b34801561015c57600080fd5b50610165610448565b6040516101729190610a68565b60405180910390f35b34801561018757600080fd5b506101a2600480360381019061019d919061096b565b610452565b6040516101b3959493929190610b5e565b60405180910390f35b3480156101c857600080fd5b506101e360048036038101906101de9190610d19565b61053d565b005b3480156101f157600080fd5b506101fa61064f565b60405161020b959493929190610d88565b60405180910390f35b61021c610695565b005b34801561022a57600080fd5b506102456004803603810190610240919061096b565b61076d565b005b34801561025357600080fd5b5061026e6004803603810190610269919061096b565b6108ab565b60405161027b9190610a3e565b60405180910390f35b600360009054906101000a900473ffffffffffffffffffffffffffffffffffffffff1673ffffffffffffffffffffffffffffffffffffffff163373ffffffffffffffffffffffffffffffffffffffff16146102de57600080fd5b60006002600083815260200190815260200160002090508060020160149054906101000a900460ff161561031157600080fd5b60026000546103209190610e39565b81600301541161032f57600080fd5b60018160020160146101000a81548160ff0219169083151502179055508060020160009054906101000a900473ffffffffffffffffffffffffffffffffffffffff1673ffffffffffffffffffffffffffffffffffffffff166108fc82600101549081150290604051600060405180830381858888f193505050501580156103ba573d6000803e3d6000fd5b505050565b600060011515600560008473ffffffffffffffffffffffffffffffffffffffff1673ffffffffffffffffffffffffffffffffffffffff16815260200190815260200160002060009054906101000a900460ff161515149050919050565b60005481565b600360009054906101000a900473ffffffffffffffffffffffffffffffffffffffff1681565b6000600154905090565b600260205280600052604060002060009150905080600001805461047590610e99565b80601f01602080910402602001604051908101604052809291908181526020018280546104a190610e99565b80156104ee5780601f106104c3576101008083540402835291602001916104ee565b820191906000526020600020905b8154815290600101906020018083116104d157829003601f168201915b5050505050908060010154908060020160009054906101000a900473ffffffffffffffffffffffffffffffffffffffff16908060020160149054906101000a900460ff16908060030154905085565b600360009054906101000a900473ffffffffffffffffffffffffffffffffffffffff1673ffffffffffffffffffffffffffffffffffffffff163373ffffffffffffffffffffffffffffffffffffffff161461059757600080fd5b600060026000600160008154809291906105b090610eca565b9190505581526020019081526020016000209050838160000190816105d591906110be565b50828160010181905550818160020160006101000a81548173ffffffffffffffffffffffffffffffffffffffff021916908373ffffffffffffffffffffffffffffffffffffffff16021790555060008160020160146101000a81548160ff0219169083151502179055506000816003018190555050505050565b600080600080600060045447600154600054600360009054906101000a900473ffffffffffffffffffffffffffffffffffffffff16945094509450945094509091929394565b60045434116106a357600080fd5b60001515600560003373ffffffffffffffffffffffffffffffffffffffff1673ffffffffffffffffffffffffffffffffffffffff16815260200190815260200160002060009054906101000a900460ff161515036107135760008081548092919061070d90610eca565b91905055505b6001600560003373ffffffffffffffffffffffffffffffffffffffff1673ffffffffffffffffffffffffffffffffffffffff16815260200190815260200160002060006101000a81548160ff021916908315150217905550565b6000600260008381526020019081526020016000209050600560003373ffffffffffffffffffffffffffffffffffffffff1673ffffffffffffffffffffffffffffffffffffffff16815260200190815260200160002060009054906101000a900460ff166107da57600080fd5b8060040160003373ffffffffffffffffffffffffffffffffffffffff1673ffffffffffffffffffffffffffffffffffffffff16815260200190815260200160002060009054906101000a900460ff161561083357600080fd5b60018160040160003373ffffffffffffffffffffffffffffffffffffffff1673ffffffffffffffffffffffffffffffffffffffff16815260200190815260200160002060006101000a81548160ff0219169083151502179055508060030160008154809291906108a290610eca565b91905055505050565b600080600260008481526020019081526020016000209050600115158160040160003373ffffffffffffffffffffffffffffffffffffffff1673ffffffffffffffffffffffffffffffffffffffff16815260200190815260200160002060009054906101000a900460ff16151514915050919050565b6000604051905090565b600080fd5b600080fd5b6000819050919050565b61094881610935565b811461095357600080fd5b50565b6000813590506109658161093f565b92915050565b6000602082840312156109815761098061092b565b5b600061098f84828501610956565b91505092915050565b600073ffffffffffffffffffffffffffffffffffffffff82169050919050565b60006109c382610998565b9050919050565b6109d3816109b8565b81146109de57600080fd5b50565b6000813590506109f0816109ca565b92915050565b600060208284031215610a0c57610a0b61092b565b5b6000610a1a848285016109e1565b91505092915050565b60008115159050919050565b610a3881610a23565b82525050565b6000602082019050610a536000830184610a2f565b92915050565b610a6281610935565b82525050565b6000602082019050610a7d6000830184610a59565b92915050565b610a8c816109b8565b82525050565b6000602082019050610aa76000830184610a83565b92915050565b600081519050919050565b600082825260208201905092915050565b60005b83811015610ae7578082015181840152602081019050610acc565b60008484015250505050565b6000601f19601f8301169050919050565b6000610b0f82610aad565b610b198185610ab8565b9350610b29818560208601610ac9565b610b3281610af3565b840191505092915050565b6000610b4882610998565b9050919050565b610b5881610b3d565b82525050565b600060a0820190508181036000830152610b788188610b04565b9050610b876020830187610a59565b610b946040830186610b4f565b610ba16060830185610a2f565b610bae6080830184610a59565b9695505050505050565b600080fd5b600080fd5b7f4e487b7100000000000000000000000000000000000000000000000000000000600052604160045260246000fd5b610bfa82610af3565b810181811067ffffffffffffffff82111715610c1957610c18610bc2565b5b80604052505050565b6000610c2c610921565b9050610c388282610bf1565b919050565b600067ffffffffffffffff821115610c5857610c57610bc2565b5b610c6182610af3565b9050602081019050919050565b82818337600083830152505050565b6000610c90610c8b84610c3d565b610c22565b905082815260208101848484011115610cac57610cab610bbd565b5b610cb7848285610c6e565b509392505050565b600082601f830112610cd457610cd3610bb8565b5b8135610ce4848260208601610c7d565b91505092915050565b610cf681610b3d565b8114610d0157600080fd5b50565b600081359050610d1381610ced565b92915050565b600080600060608486031215610d3257610d3161092b565b5b600084013567ffffffffffffffff811115610d5057610d4f610930565b5b610d5c86828701610cbf565b9350506020610d6d86828701610956565b9250506040610d7e86828701610d04565b9150509250925092565b600060a082019050610d9d6000830188610a59565b610daa6020830187610a59565b610db76040830186610a59565b610dc46060830185610a59565b610dd16080830184610a83565b9695505050505050565b7f4e487b7100000000000000000000000000000000000000000000000000000000600052601260045260246000fd5b7f4e487b7100000000000000000000000000000000000000000000000000000000600052601160045260246000fd5b6000610e4482610935565b9150610e4f83610935565b925082610e5f57610e5e610ddb565b5b828204905092915050565b7f4e487b7100000000000000000000000000000000000000000000000000000000600052602260045260246000fd5b60006002820490506001821680610eb157607f821691505b602082108103610ec457610ec3610e6a565b5b50919050565b6000610ed582610935565b91507fffffffffffffffffffffffffffffffffffffffffffffffffffffffffffffffff8203610f0757610f06610e0a565b5b600182019050919050565b60008190508160005260206000209050919050565b60006020601f8301049050919050565b600082821b905092915050565b600060088302610f747fffffffffffffffffffffffffffffffffffffffffffffffffffffffffffffffff82610f37565b610f7e8683610f37565b95508019841693508086168417925050509392505050565b6000819050919050565b6000610fbb610fb6610fb184610935565b610f96565b610935565b9050919050565b6000819050919050565b610fd583610fa0565b610fe9610fe182610fc2565b848454610f44565b825550505050565b600090565b610ffe610ff1565b611009818484610fcc565b505050565b5b8181101561102d57611022600082610ff6565b60018101905061100f565b5050565b601f8211156110725761104381610f12565b61104c84610f27565b8101602085101561105b578190505b61106f61106785610f27565b83018261100e565b50505b505050565b600082821c905092915050565b600061109560001984600802611077565b1980831691505092915050565b60006110ae8383611084565b9150826002028217905092915050565b6110c782610aad565b67ffffffffffffffff8111156110e0576110df610bc2565b5b6110ea8254610e99565b6110f5828285611031565b600060209050601f8311600181146111285760008415611116578287015190505b61112085826110a2565b865550611188565b601f19841661113686610f12565b60005b8281101561115e57848901518255600182019150602085019450602081019050611139565b8683101561117b5784890151611177601f891682611084565b8355505b6001600288020188555050505b50505050505056fea2646970667358221220be95a41d15324cee6e3d7a538a157e2735d7ad613b3063d5a93e59da934caf4d64736f6c63430008110033","opcodes":"PUSH1 0x80 PUSH1 0x40 MSTORE CALLVALUE DUP1 ISZERO PUSH3 0x11 JUMPI PUSH1 0x0 DUP1 REVERT JUMPDEST POP PUSH1 0x40 MLOAD PUSH3 0x1350 CODESIZE SUB DUP1 PUSH3 0x1350 DUP4 CODECOPY DUP2 DUP2 ADD PUSH1 0x40 MSTORE DUP2 ADD SWAP1 PUSH3 0x37 SWAP2 SWAP1 PUSH3 0x133 JUMP JUMPDEST DUP2 PUSH1 0x4 DUP2 SWAP1 SSTORE POP DUP1 PUSH1 0x3 PUSH1 0x0 PUSH2 0x100 EXP DUP2 SLOAD DUP2 PUSH20 0xFFFFFFFFFFFFFFFFFFFFFFFFFFFFFFFFFFFFFFFF MUL NOT AND SWAP1 DUP4 PUSH20 0xFFFFFFFFFFFFFFFFFFFFFFFFFFFFFFFFFFFFFFFF AND MUL OR SWAP1 SSTORE POP PUSH1 0x0 DUP1 DUP2 SWAP1 SSTORE POP POP POP PUSH3 0x17A JUMP JUMPDEST PUSH1 0x0 DUP1 REVERT JUMPDEST PUSH1 0x0 DUP2 SWAP1 POP SWAP2 SWAP1 POP JUMP JUMPDEST PUSH3 0xA8 DUP2 PUSH3 0x93 JUMP JUMPDEST DUP2 EQ PUSH3 0xB4 JUMPI PUSH1 0x0 DUP1 REVERT JUMPDEST POP JUMP JUMPDEST PUSH1 0x0 DUP2 MLOAD SWAP1 POP PUSH3 0xC8 DUP2 PUSH3 0x9D JUMP JUMPDEST SWAP3 SWAP2 POP POP JUMP JUMPDEST PUSH1 0x0 PUSH20 0xFFFFFFFFFFFFFFFFFFFFFFFFFFFFFFFFFFFFFFFF DUP3 AND SWAP1 POP SWAP2 SWAP1 POP JUMP JUMPDEST PUSH1 0x0 PUSH3 0xFB DUP3 PUSH3 0xCE JUMP JUMPDEST SWAP1 POP SWAP2 SWAP1 POP JUMP JUMPDEST PUSH3 0x10D DUP2 PUSH3 0xEE JUMP JUMPDEST DUP2 EQ PUSH3 0x119 JUMPI PUSH1 0x0 DUP1 REVERT JUMPDEST POP JUMP JUMPDEST PUSH1 0x0 DUP2 MLOAD SWAP1 POP PUSH3 0x12D DUP2 PUSH3 0x102 JUMP JUMPDEST SWAP3 SWAP2 POP POP JUMP JUMPDEST PUSH1 0x0 DUP1 PUSH1 0x40 DUP4 DUP6 SUB SLT ISZERO PUSH3 0x14D JUMPI PUSH3 0x14C PUSH3 0x8E JUMP JUMPDEST JUMPDEST PUSH1 0x0 PUSH3 0x15D DUP6 DUP3 DUP7 ADD PUSH3 0xB7 JUMP JUMPDEST SWAP3 POP POP PUSH1 0x20 PUSH3 0x170 DUP6 DUP3 DUP7 ADD PUSH3 0x11C JUMP JUMPDEST SWAP2 POP POP SWAP3 POP SWAP3 SWAP1 POP JUMP JUMPDEST PUSH2 0x11C6 DUP1 PUSH3 0x18A PUSH1 0x0 CODECOPY PUSH1 0x0 RETURN INVALID PUSH1 0x80 PUSH1 0x40 MSTORE PUSH1 0x4 CALLDATASIZE LT PUSH2 0x9C JUMPI PUSH1 0x0 CALLDATALOAD PUSH1 0xE0 SHR DUP1 PUSH4 0x81D12C58 GT PUSH2 0x64 JUMPI DUP1 PUSH4 0x81D12C58 EQ PUSH2 0x17B JUMPI DUP1 PUSH4 0x8A9CFD55 EQ PUSH2 0x1BC JUMPI DUP1 PUSH4 0xBB54F1B5 EQ PUSH2 0x1E5 JUMPI DUP1 PUSH4 0xD7BB99BA EQ PUSH2 0x214 JUMPI DUP1 PUSH4 0xD7D1BBDB EQ PUSH2 0x21E JUMPI DUP1 PUSH4 0xEDA6EB6C EQ PUSH2 0x247 JUMPI PUSH2 0x9C JUMP JUMPDEST DUP1 PUSH4 0x3441006 EQ PUSH2 0xA1 JUMPI DUP1 PUSH4 0x1D0D35F5 EQ PUSH2 0xBD JUMPI DUP1 PUSH4 0x3E610FA6 EQ PUSH2 0xFA JUMPI DUP1 PUSH4 0x481C6A75 EQ PUSH2 0x125 JUMPI DUP1 PUSH4 0x4B8CD041 EQ PUSH2 0x150 JUMPI JUMPDEST PUSH1 0x0 DUP1 REVERT JUMPDEST PUSH2 0xBB PUSH1 0x4 DUP1 CALLDATASIZE SUB DUP2 ADD SWAP1 PUSH2 0xB6 SWAP2 SWAP1 PUSH2 0x96B JUMP JUMPDEST PUSH2 0x284 JUMP JUMPDEST STOP JUMPDEST CALLVALUE DUP1 ISZERO PUSH2 0xC9 JUMPI PUSH1 0x0 DUP1 REVERT JUMPDEST POP PUSH2 0xE4 PUSH1 0x4 DUP1 CALLDATASIZE SUB DUP2 ADD SWAP1 PUSH2 0xDF SWAP2 SWAP1 PUSH2 0x9F6 JUMP JUMPDEST PUSH2 0x3BF JUMP JUMPDEST PUSH1 0x40 MLOAD PUSH2 0xF1 SWAP2 SWAP1 PUSH2 0xA3E JUMP JUMPDEST PUSH1 0x40 MLOAD DUP1 SWAP2 SUB SWAP1 RETURN JUMPDEST CALLVALUE DUP1 ISZERO PUSH2 0x106 JUMPI PUSH1 0x0 DUP1 REVERT JUMPDEST POP PUSH2 0x10F PUSH2 0x41C JUMP JUMPDEST PUSH1 0x40 MLOAD PUSH2 0x11C SWAP2 SWAP1 PUSH2 0xA68 JUMP JUMPDEST PUSH1 0x40 MLOAD DUP1 SWAP2 SUB SWAP1 RETURN JUMPDEST CALLVALUE DUP1 ISZERO PUSH2 0x131 JUMPI PUSH1 0x0 DUP1 REVERT JUMPDEST POP PUSH2 0x13A PUSH2 0x422 JUMP JUMPDEST PUSH1 0x40 MLOAD PUSH2 0x147 SWAP2 SWAP1 PUSH2 0xA92 JUMP JUMPDEST PUSH1 0x40 MLOAD DUP1 SWAP2 SUB SWAP1 RETURN JUMPDEST CALLVALUE DUP1 ISZERO PUSH2 0x15C JUMPI PUSH1 0x0 DUP1 REVERT JUMPDEST POP PUSH2 0x165 PUSH2 0x448 JUMP JUMPDEST PUSH1 0x40 MLOAD PUSH2 0x172 SWAP2 SWAP1 PUSH2 0xA68 JUMP JUMPDEST PUSH1 0x40 MLOAD DUP1 SWAP2 SUB SWAP1 RETURN JUMPDEST CALLVALUE DUP1 ISZERO PUSH2 0x187 JUMPI PUSH1 0x0 DUP1 REVERT JUMPDEST POP PUSH2 0x1A2 PUSH1 0x4 DUP1 CALLDATASIZE SUB DUP2 ADD SWAP1 PUSH2 0x19D SWAP2 SWAP1 PUSH2 0x96B JUMP JUMPDEST PUSH2 0x452 JUMP JUMPDEST PUSH1 0x40 MLOAD PUSH2 0x1B3 SWAP6 SWAP5 SWAP4 SWAP3 SWAP2 SWAP1 PUSH2 0xB5E JUMP JUMPDEST PUSH1 0x40 MLOAD DUP1 SWAP2 SUB SWAP1 RETURN JUMPDEST CALLVALUE DUP1 ISZERO PUSH2 0x1C8 JUMPI PUSH1 0x0 DUP1 REVERT JUMPDEST POP PUSH2 0x1E3 PUSH1 0x4 DUP1 CALLDATASIZE SUB DUP2 ADD SWAP1 PUSH2 0x1DE SWAP2 SWAP1 PUSH2 0xD19 JUMP JUMPDEST PUSH2 0x53D JUMP JUMPDEST STOP JUMPDEST CALLVALUE DUP1 ISZERO PUSH2 0x1F1 JUMPI PUSH1 0x0 DUP1 REVERT JUMPDEST POP PUSH2 0x1FA PUSH2 0x64F JUMP JUMPDEST PUSH1 0x40 MLOAD PUSH2 0x20B SWAP6 SWAP5 SWAP4 SWAP3 SWAP2 SWAP1 PUSH2 0xD88 JUMP JUMPDEST PUSH1 0x40 MLOAD DUP1 SWAP2 SUB SWAP1 RETURN JUMPDEST PUSH2 0x21C PUSH2 0x695 JUMP JUMPDEST STOP JUMPDEST CALLVALUE DUP1 ISZERO PUSH2 0x22A JUMPI PUSH1 0x0 DUP1 REVERT JUMPDEST POP PUSH2 0x245 PUSH1 0x4 DUP1 CALLDATASIZE SUB DUP2 ADD SWAP1 PUSH2 0x240 SWAP2 SWAP1 PUSH2 0x96B JUMP JUMPDEST PUSH2 0x76D JUMP JUMPDEST STOP JUMPDEST CALLVALUE DUP1 ISZERO PUSH2 0x253 JUMPI PUSH1 0x0 DUP1 REVERT JUMPDEST POP PUSH2 0x26E PUSH1 0x4 DUP1 CALLDATASIZE SUB DUP2 ADD SWAP1 PUSH2 0x269 SWAP2 SWAP1 PUSH2 0x96B JUMP JUMPDEST PUSH2 0x8AB JUMP JUMPDEST PUSH1 0x40 MLOAD PUSH2 0x27B SWAP2 SWAP1 PUSH2 0xA3E JUMP JUMPDEST PUSH1 0x40 MLOAD DUP1 SWAP2 SUB SWAP1 RETURN JUMPDEST PUSH1 0x3 PUSH1 0x0 SWAP1 SLOAD SWAP1 PUSH2 0x100 EXP SWAP1 DIV PUSH20 0xFFFFFFFFFFFFFFFFFFFFFFFFFFFFFFFFFFFFFFFF AND PUSH20 0xFFFFFFFFFFFFFFFFFFFFFFFFFFFFFFFFFFFFFFFF AND CALLER PUSH20 0xFFFFFFFFFFFFFFFFFFFFFFFFFFFFFFFFFFFFFFFF AND EQ PUSH2 0x2DE JUMPI PUSH1 0x0 DUP1 REVERT JUMPDEST PUSH1 0x0 PUSH1 0x2 PUSH1 0x0 DUP4 DUP2 MSTORE PUSH1 0x20 ADD SWAP1 DUP2 MSTORE PUSH1 0x20 ADD PUSH1 0x0 KECCAK256 SWAP1 POP DUP1 PUSH1 0x2 ADD PUSH1 0x14 SWAP1 SLOAD SWAP1 PUSH2 0x100 EXP SWAP1 DIV PUSH1 0xFF AND ISZERO PUSH2 0x311 JUMPI PUSH1 0x0 DUP1 REVERT JUMPDEST PUSH1 0x2 PUSH1 0x0 SLOAD PUSH2 0x320 SWAP2 SWAP1 PUSH2 0xE39 JUMP JUMPDEST DUP2 PUSH1 0x3 ADD SLOAD GT PUSH2 0x32F JUMPI PUSH1 0x0 DUP1 REVERT JUMPDEST PUSH1 0x1 DUP2 PUSH1 0x2 ADD PUSH1 0x14 PUSH2 0x100 EXP DUP2 SLOAD DUP2 PUSH1 0xFF MUL NOT AND SWAP1 DUP4 ISZERO ISZERO MUL OR SWAP1 SSTORE POP DUP1 PUSH1 0x2 ADD PUSH1 0x0 SWAP1 SLOAD SWAP1 PUSH2 0x100 EXP SWAP1 DIV PUSH20 0xFFFFFFFFFFFFFFFFFFFFFFFFFFFFFFFFFFFFFFFF AND PUSH20 0xFFFFFFFFFFFFFFFFFFFFFFFFFFFFFFFFFFFFFFFF AND PUSH2 0x8FC DUP3 PUSH1 0x1 ADD SLOAD SWAP1 DUP2 ISZERO MUL SWAP1 PUSH1 0x40 MLOAD PUSH1 0x0 PUSH1 0x40 MLOAD DUP1 DUP4 SUB DUP2 DUP6 DUP9 DUP9 CALL SWAP4 POP POP POP POP ISZERO DUP1 ISZERO PUSH2 0x3BA JUMPI RETURNDATASIZE PUSH1 0x0 DUP1 RETURNDATACOPY RETURNDATASIZE PUSH1 0x0 REVERT JUMPDEST POP POP POP JUMP JUMPDEST PUSH1 0x0 PUSH1 0x1 ISZERO ISZERO PUSH1 0x5 PUSH1 0x0 DUP5 PUSH20 0xFFFFFFFFFFFFFFFFFFFFFFFFFFFFFFFFFFFFFFFF AND PUSH20 0xFFFFFFFFFFFFFFFFFFFFFFFFFFFFFFFFFFFFFFFF AND DUP2 MSTORE PUSH1 0x20 ADD SWAP1 DUP2 MSTORE PUSH1 0x20 ADD PUSH1 0x0 KECCAK256 PUSH1 0x0 SWAP1 SLOAD SWAP1 PUSH2 0x100 EXP SWAP1 DIV PUSH1 0xFF AND ISZERO ISZERO EQ SWAP1 POP SWAP2 SWAP1 POP JUMP JUMPDEST PUSH1 0x0 SLOAD DUP2 JUMP JUMPDEST PUSH1 0x3 PUSH1 0x0 SWAP1 SLOAD SWAP1 PUSH2 0x100 EXP SWAP1 DIV PUSH20 0xFFFFFFFFFFFFFFFFFFFFFFFFFFFFFFFFFFFFFFFF AND DUP2 JUMP JUMPDEST PUSH1 0x0 PUSH1 0x1 SLOAD SWAP1 POP SWAP1 JUMP JUMPDEST PUSH1 0x2 PUSH1 0x20 MSTORE DUP1 PUSH1 0x0 MSTORE PUSH1 0x40 PUSH1 0x0 KECCAK256 PUSH1 0x0 SWAP2 POP SWAP1 POP DUP1 PUSH1 0x0 ADD DUP1 SLOAD PUSH2 0x475 SWAP1 PUSH2 0xE99 JUMP JUMPDEST DUP1 PUSH1 0x1F ADD PUSH1 0x20 DUP1 SWAP2 DIV MUL PUSH1 0x20 ADD PUSH1 0x40 MLOAD SWAP1 DUP2 ADD PUSH1 0x40 MSTORE DUP1 SWAP3 SWAP2 SWAP1 DUP2 DUP2 MSTORE PUSH1 0x20 ADD DUP3 DUP1 SLOAD PUSH2 0x4A1 SWAP1 PUSH2 0xE99 JUMP JUMPDEST DUP1 ISZERO PUSH2 0x4EE JUMPI DUP1 PUSH1 0x1F LT PUSH2 0x4C3 JUMPI PUSH2 0x100 DUP1 DUP4 SLOAD DIV MUL DUP4 MSTORE SWAP2 PUSH1 0x20 ADD SWAP2 PUSH2 0x4EE JUMP JUMPDEST DUP3 ADD SWAP2 SWAP1 PUSH1 0x0 MSTORE PUSH1 0x20 PUSH1 0x0 KECCAK256 SWAP1 JUMPDEST DUP2 SLOAD DUP2 MSTORE SWAP1 PUSH1 0x1 ADD SWAP1 PUSH1 0x20 ADD DUP1 DUP4 GT PUSH2 0x4D1 JUMPI DUP3 SWAP1 SUB PUSH1 0x1F AND DUP3 ADD SWAP2 JUMPDEST POP POP POP POP POP SWAP1 DUP1 PUSH1 0x1 ADD SLOAD SWAP1 DUP1 PUSH1 0x2 ADD PUSH1 0x0 SWAP1 SLOAD SWAP1 PUSH2 0x100 EXP SWAP1 DIV PUSH20 0xFFFFFFFFFFFFFFFFFFFFFFFFFFFFFFFFFFFFFFFF AND SWAP1 DUP1 PUSH1 0x2 ADD PUSH1 0x14 SWAP1 SLOAD SWAP1 PUSH2 0x100 EXP SWAP1 DIV PUSH1 0xFF AND SWAP1 DUP1 PUSH1 0x3 ADD SLOAD SWAP1 POP DUP6 JUMP JUMPDEST PUSH1 0x3 PUSH1 0x0 SWAP1 SLOAD SWAP1 PUSH2 0x100 EXP SWAP1 DIV PUSH20 0xFFFFFFFFFFFFFFFFFFFFFFFFFFFFFFFFFFFFFFFF AND PUSH20 0xFFFFFFFFFFFFFFFFFFFFFFFFFFFFFFFFFFFFFFFF AND CALLER PUSH20 0xFFFFFFFFFFFFFFFFFFFFFFFFFFFFFFFFFFFFFFFF AND EQ PUSH2 0x597 JUMPI PUSH1 0x0 DUP1 REVERT JUMPDEST PUSH1 0x0 PUSH1 0x2 PUSH1 0x0 PUSH1 0x1 PUSH1 0x0 DUP2 SLOAD DUP1 SWAP3 SWAP2 SWAP1 PUSH2 0x5B0 SWAP1 PUSH2 0xECA JUMP JUMPDEST SWAP2 SWAP1 POP SSTORE DUP2 MSTORE PUSH1 0x20 ADD SWAP1 DUP2 MSTORE PUSH1 0x20 ADD PUSH1 0x0 KECCAK256 SWAP1 POP DUP4 DUP2 PUSH1 0x0 ADD SWAP1 DUP2 PUSH2 0x5D5 SWAP2 SWAP1 PUSH2 0x10BE JUMP JUMPDEST POP DUP3 DUP2 PUSH1 0x1 ADD DUP2 SWAP1 SSTORE POP DUP2 DUP2 PUSH1 0x2 ADD PUSH1 0x0 PUSH2 0x100 EXP DUP2 SLOAD DUP2 PUSH20 0xFFFFFFFFFFFFFFFFFFFFFFFFFFFFFFFFFFFFFFFF MUL NOT AND SWAP1 DUP4 PUSH20 0xFFFFFFFFFFFFFFFFFFFFFFFFFFFFFFFFFFFFFFFF AND MUL OR SWAP1 SSTORE POP PUSH1 0x0 DUP2 PUSH1 0x2 ADD PUSH1 0x14 PUSH2 0x100 EXP DUP2 SLOAD DUP2 PUSH1 0xFF MUL NOT AND SWAP1 DUP4 ISZERO ISZERO MUL OR SWAP1 SSTORE POP PUSH1 0x0 DUP2 PUSH1 0x3 ADD DUP2 SWAP1 SSTORE POP POP POP POP POP JUMP JUMPDEST PUSH1 0x0 DUP1 PUSH1 0x0 DUP1 PUSH1 0x0 PUSH1 0x4 SLOAD SELFBALANCE PUSH1 0x1 SLOAD PUSH1 0x0 SLOAD PUSH1 0x3 PUSH1 0x0 SWAP1 SLOAD SWAP1 PUSH2 0x100 EXP SWAP1 DIV PUSH20 0xFFFFFFFFFFFFFFFFFFFFFFFFFFFFFFFFFFFFFFFF AND SWAP5 POP SWAP5 POP SWAP5 POP SWAP5 POP SWAP5 POP SWAP1 SWAP2 SWAP3 SWAP4 SWAP5 JUMP JUMPDEST PUSH1 0x4 SLOAD CALLVALUE GT PUSH2 0x6A3 JUMPI PUSH1 0x0 DUP1 REVERT JUMPDEST PUSH1 0x0 ISZERO ISZERO PUSH1 0x5 PUSH1 0x0 CALLER PUSH20 0xFFFFFFFFFFFFFFFFFFFFFFFFFFFFFFFFFFFFFFFF AND PUSH20 0xFFFFFFFFFFFFFFFFFFFFFFFFFFFFFFFFFFFFFFFF AND DUP2 MSTORE PUSH1 0x20 ADD SWAP1 DUP2 MSTORE PUSH1 0x20 ADD PUSH1 0x0 KECCAK256 PUSH1 0x0 SWAP1 SLOAD SWAP1 PUSH2 0x100 EXP SWAP1 DIV PUSH1 0xFF AND ISZERO ISZERO SUB PUSH2 0x713 JUMPI PUSH1 0x0 DUP1 DUP2 SLOAD DUP1 SWAP3 SWAP2 SWAP1 PUSH2 0x70D SWAP1 PUSH2 0xECA JUMP JUMPDEST SWAP2 SWAP1 POP SSTORE POP JUMPDEST PUSH1 0x1 PUSH1 0x5 PUSH1 0x0 CALLER PUSH20 0xFFFFFFFFFFFFFFFFFFFFFFFFFFFFFFFFFFFFFFFF AND PUSH20 0xFFFFFFFFFFFFFFFFFFFFFFFFFFFFFFFFFFFFFFFF AND DUP2 MSTORE PUSH1 0x20 ADD SWAP1 DUP2 MSTORE PUSH1 0x20 ADD PUSH1 0x0 KECCAK256 PUSH1 0x0 PUSH2 0x100 EXP DUP2 SLOAD DUP2 PUSH1 0xFF MUL NOT AND SWAP1 DUP4 ISZERO ISZERO MUL OR SWAP1 SSTORE POP JUMP JUMPDEST PUSH1 0x0 PUSH1 0x2 PUSH1 0x0 DUP4 DUP2 MSTORE PUSH1 0x20 ADD SWAP1 DUP2 MSTORE PUSH1 0x20 ADD PUSH1 0x0 KECCAK256 SWAP1 POP PUSH1 0x5 PUSH1 0x0 CALLER PUSH20 0xFFFFFFFFFFFFFFFFFFFFFFFFFFFFFFFFFFFFFFFF AND PUSH20 0xFFFFFFFFFFFFFFFFFFFFFFFFFFFFFFFFFFFFFFFF AND DUP2 MSTORE PUSH1 0x20 ADD SWAP1 DUP2 MSTORE PUSH1 0x20 ADD PUSH1 0x0 KECCAK256 PUSH1 0x0 SWAP1 SLOAD SWAP1 PUSH2 0x100 EXP SWAP1 DIV PUSH1 0xFF AND PUSH2 0x7DA JUMPI PUSH1 0x0 DUP1 REVERT JUMPDEST DUP1 PUSH1 0x4 ADD PUSH1 0x0 CALLER PUSH20 0xFFFFFFFFFFFFFFFFFFFFFFFFFFFFFFFFFFFFFFFF AND PUSH20 0xFFFFFFFFFFFFFFFFFFFFFFFFFFFFFFFFFFFFFFFF AND DUP2 MSTORE PUSH1 0x20 ADD SWAP1 DUP2 MSTORE PUSH1 0x20 ADD PUSH1 0x0 KECCAK256 PUSH1 0x0 SWAP1 SLOAD SWAP1 PUSH2 0x100 EXP SWAP1 DIV PUSH1 0xFF AND ISZERO PUSH2 0x833 JUMPI PUSH1 0x0 DUP1 REVERT JUMPDEST PUSH1 0x1 DUP2 PUSH1 0x4 ADD PUSH1 0x0 CALLER PUSH20 0xFFFFFFFFFFFFFFFFFFFFFFFFFFFFFFFFFFFFFFFF AND PUSH20 0xFFFFFFFFFFFFFFFFFFFFFFFFFFFFFFFFFFFFFFFF AND DUP2 MSTORE PUSH1 0x20 ADD SWAP1 DUP2 MSTORE PUSH1 0x20 ADD PUSH1 0x0 KECCAK256 PUSH1 0x0 PUSH2 0x100 EXP DUP2 SLOAD DUP2 PUSH1 0xFF MUL NOT AND SWAP1 DUP4 ISZERO ISZERO MUL OR SWAP1 SSTORE POP DUP1 PUSH1 0x3 ADD PUSH1 0x0 DUP2 SLOAD DUP1 SWAP3 SWAP2 SWAP1 PUSH2 0x8A2 SWAP1 PUSH2 0xECA JUMP JUMPDEST SWAP2 SWAP1 POP SSTORE POP POP POP JUMP JUMPDEST PUSH1 0x0 DUP1 PUSH1 0x2 PUSH1 0x0 DUP5 DUP2 MSTORE PUSH1 0x20 ADD SWAP1 DUP2 MSTORE PUSH1 0x20 ADD PUSH1 0x0 KECCAK256 SWAP1 POP PUSH1 0x1 ISZERO ISZERO DUP2 PUSH1 0x4 ADD PUSH1 0x0 CALLER PUSH20 0xFFFFFFFFFFFFFFFFFFFFFFFFFFFFFFFFFFFFFFFF AND PUSH20 0xFFFFFFFFFFFFFFFFFFFFFFFFFFFFFFFFFFFFFFFF AND DUP2 MSTORE PUSH1 0x20 ADD SWAP1 DUP2 MSTORE PUSH1 0x20 ADD PUSH1 0x0 KECCAK256 PUSH1 0x0 SWAP1 SLOAD SWAP1 PUSH2 0x100 EXP SWAP1 DIV PUSH1 0xFF AND ISZERO ISZERO EQ SWAP2 POP POP SWAP2 SWAP1 POP JUMP JUMPDEST PUSH1 0x0 PUSH1 0x40 MLOAD SWAP1 POP SWAP1 JUMP JUMPDEST PUSH1 0x0 DUP1 REVERT JUMPDEST PUSH1 0x0 DUP1 REVERT JUMPDEST PUSH1 0x0 DUP2 SWAP1 POP SWAP2 SWAP1 POP JUMP JUMPDEST PUSH2 0x948 DUP2 PUSH2 0x935 JUMP JUMPDEST DUP2 EQ PUSH2 0x953 JUMPI PUSH1 0x0 DUP1 REVERT JUMPDEST POP JUMP JUMPDEST PUSH1 0x0 DUP2 CALLDATALOAD SWAP1 POP PUSH2 0x965 DUP2 PUSH2 0x93F JUMP JUMPDEST SWAP3 SWAP2 POP POP JUMP JUMPDEST PUSH1 0x0 PUSH1 0x20 DUP3 DUP5 SUB SLT ISZERO PUSH2 0x981 JUMPI PUSH2 0x980 PUSH2 0x92B JUMP JUMPDEST JUMPDEST PUSH1 0x0 PUSH2 0x98F DUP5 DUP3 DUP6 ADD PUSH2 0x956 JUMP JUMPDEST SWAP2 POP POP SWAP3 SWAP2 POP POP JUMP JUMPDEST PUSH1 0x0 PUSH20 0xFFFFFFFFFFFFFFFFFFFFFFFFFFFFFFFFFFFFFFFF DUP3 AND SWAP1 POP SWAP2 SWAP1 POP JUMP JUMPDEST PUSH1 0x0 PUSH2 0x9C3 DUP3 PUSH2 0x998 JUMP JUMPDEST SWAP1 POP SWAP2 SWAP1 POP JUMP JUMPDEST PUSH2 0x9D3 DUP2 PUSH2 0x9B8 JUMP JUMPDEST DUP2 EQ PUSH2 0x9DE JUMPI PUSH1 0x0 DUP1 REVERT JUMPDEST POP JUMP JUMPDEST PUSH1 0x0 DUP2 CALLDATALOAD SWAP1 POP PUSH2 0x9F0 DUP2 PUSH2 0x9CA JUMP JUMPDEST SWAP3 SWAP2 POP POP JUMP JUMPDEST PUSH1 0x0 PUSH1 0x20 DUP3 DUP5 SUB SLT ISZERO PUSH2 0xA0C JUMPI PUSH2 0xA0B PUSH2 0x92B JUMP JUMPDEST JUMPDEST PUSH1 0x0 PUSH2 0xA1A DUP5 DUP3 DUP6 ADD PUSH2 0x9E1 JUMP JUMPDEST SWAP2 POP POP SWAP3 SWAP2 POP POP JUMP JUMPDEST PUSH1 0x0 DUP2 ISZERO ISZERO SWAP1 POP SWAP2 SWAP1 POP JUMP JUMPDEST PUSH2 0xA38 DUP2 PUSH2 0xA23 JUMP JUMPDEST DUP3 MSTORE POP POP JUMP JUMPDEST PUSH1 0x0 PUSH1 0x20 DUP3 ADD SWAP1 POP PUSH2 0xA53 PUSH1 0x0 DUP4 ADD DUP5 PUSH2 0xA2F JUMP JUMPDEST SWAP3 SWAP2 POP POP JUMP JUMPDEST PUSH2 0xA62 DUP2 PUSH2 0x935 JUMP JUMPDEST DUP3 MSTORE POP POP JUMP JUMPDEST PUSH1 0x0 PUSH1 0x20 DUP3 ADD SWAP1 POP PUSH2 0xA7D PUSH1 0x0 DUP4 ADD DUP5 PUSH2 0xA59 JUMP JUMPDEST SWAP3 SWAP2 POP POP JUMP JUMPDEST PUSH2 0xA8C DUP2 PUSH2 0x9B8 JUMP JUMPDEST DUP3 MSTORE POP POP JUMP JUMPDEST PUSH1 0x0 PUSH1 0x20 DUP3 ADD SWAP1 POP PUSH2 0xAA7 PUSH1 0x0 DUP4 ADD DUP5 PUSH2 0xA83 JUMP JUMPDEST SWAP3 SWAP2 POP POP JUMP JUMPDEST PUSH1 0x0 DUP2 MLOAD SWAP1 POP SWAP2 SWAP1 POP JUMP JUMPDEST PUSH1 0x0 DUP3 DUP3 MSTORE PUSH1 0x20 DUP3 ADD SWAP1 POP SWAP3 SWAP2 POP POP JUMP JUMPDEST PUSH1 0x0 JUMPDEST DUP4 DUP2 LT ISZERO PUSH2 0xAE7 JUMPI DUP1 DUP3 ADD MLOAD DUP2 DUP5 ADD MSTORE PUSH1 0x20 DUP2 ADD SWAP1 POP PUSH2 0xACC JUMP JUMPDEST PUSH1 0x0 DUP5 DUP5 ADD MSTORE POP POP POP POP JUMP JUMPDEST PUSH1 0x0 PUSH1 0x1F NOT PUSH1 0x1F DUP4 ADD AND SWAP1 POP SWAP2 SWAP1 POP JUMP JUMPDEST PUSH1 0x0 PUSH2 0xB0F DUP3 PUSH2 0xAAD JUMP JUMPDEST PUSH2 0xB19 DUP2 DUP6 PUSH2 0xAB8 JUMP JUMPDEST SWAP4 POP PUSH2 0xB29 DUP2 DUP6 PUSH1 0x20 DUP7 ADD PUSH2 0xAC9 JUMP JUMPDEST PUSH2 0xB32 DUP2 PUSH2 0xAF3 JUMP JUMPDEST DUP5 ADD SWAP2 POP POP SWAP3 SWAP2 POP POP JUMP JUMPDEST PUSH1 0x0 PUSH2 0xB48 DUP3 PUSH2 0x998 JUMP JUMPDEST SWAP1 POP SWAP2 SWAP1 POP JUMP JUMPDEST PUSH2 0xB58 DUP2 PUSH2 0xB3D JUMP JUMPDEST DUP3 MSTORE POP POP JUMP JUMPDEST PUSH1 0x0 PUSH1 0xA0 DUP3 ADD SWAP1 POP DUP2 DUP2 SUB PUSH1 0x0 DUP4 ADD MSTORE PUSH2 0xB78 DUP2 DUP9 PUSH2 0xB04 JUMP JUMPDEST SWAP1 POP PUSH2 0xB87 PUSH1 0x20 DUP4 ADD DUP8 PUSH2 0xA59 JUMP JUMPDEST PUSH2 0xB94 PUSH1 0x40 DUP4 ADD DUP7 PUSH2 0xB4F JUMP JUMPDEST PUSH2 0xBA1 PUSH1 0x60 DUP4 ADD DUP6 PUSH2 0xA2F JUMP JUMPDEST PUSH2 0xBAE PUSH1 0x80 DUP4 ADD DUP5 PUSH2 0xA59 JUMP JUMPDEST SWAP7 SWAP6 POP POP POP POP POP POP JUMP JUMPDEST PUSH1 0x0 DUP1 REVERT JUMPDEST PUSH1 0x0 DUP1 REVERT JUMPDEST PUSH32 0x4E487B7100000000000000000000000000000000000000000000000000000000 PUSH1 0x0 MSTORE PUSH1 0x41 PUSH1 0x4 MSTORE PUSH1 0x24 PUSH1 0x0 REVERT JUMPDEST PUSH2 0xBFA DUP3 PUSH2 0xAF3 JUMP JUMPDEST DUP2 ADD DUP2 DUP2 LT PUSH8 0xFFFFFFFFFFFFFFFF DUP3 GT OR ISZERO PUSH2 0xC19 JUMPI PUSH2 0xC18 PUSH2 0xBC2 JUMP JUMPDEST JUMPDEST DUP1 PUSH1 0x40 MSTORE POP POP POP JUMP JUMPDEST PUSH1 0x0 PUSH2 0xC2C PUSH2 0x921 JUMP JUMPDEST SWAP1 POP PUSH2 0xC38 DUP3 DUP3 PUSH2 0xBF1 JUMP JUMPDEST SWAP2 SWAP1 POP JUMP JUMPDEST PUSH1 0x0 PUSH8 0xFFFFFFFFFFFFFFFF DUP3 GT ISZERO PUSH2 0xC58 JUMPI PUSH2 0xC57 PUSH2 0xBC2 JUMP JUMPDEST JUMPDEST PUSH2 0xC61 DUP3 PUSH2 0xAF3 JUMP JUMPDEST SWAP1 POP PUSH1 0x20 DUP2 ADD SWAP1 POP SWAP2 SWAP1 POP JUMP JUMPDEST DUP3 DUP2 DUP4 CALLDATACOPY PUSH1 0x0 DUP4 DUP4 ADD MSTORE POP POP POP JUMP JUMPDEST PUSH1 0x0 PUSH2 0xC90 PUSH2 0xC8B DUP5 PUSH2 0xC3D JUMP JUMPDEST PUSH2 0xC22 JUMP JUMPDEST SWAP1 POP DUP3 DUP2 MSTORE PUSH1 0x20 DUP2 ADD DUP5 DUP5 DUP5 ADD GT ISZERO PUSH2 0xCAC JUMPI PUSH2 0xCAB PUSH2 0xBBD JUMP JUMPDEST JUMPDEST PUSH2 0xCB7 DUP5 DUP3 DUP6 PUSH2 0xC6E JUMP JUMPDEST POP SWAP4 SWAP3 POP POP POP JUMP JUMPDEST PUSH1 0x0 DUP3 PUSH1 0x1F DUP4 ADD SLT PUSH2 0xCD4 JUMPI PUSH2 0xCD3 PUSH2 0xBB8 JUMP JUMPDEST JUMPDEST DUP2 CALLDATALOAD PUSH2 0xCE4 DUP5 DUP3 PUSH1 0x20 DUP7 ADD PUSH2 0xC7D JUMP JUMPDEST SWAP2 POP POP SWAP3 SWAP2 POP POP JUMP JUMPDEST PUSH2 0xCF6 DUP2 PUSH2 0xB3D JUMP JUMPDEST DUP2 EQ PUSH2 0xD01 JUMPI PUSH1 0x0 DUP1 REVERT JUMPDEST POP JUMP JUMPDEST PUSH1 0x0 DUP2 CALLDATALOAD SWAP1 POP PUSH2 0xD13 DUP2 PUSH2 0xCED JUMP JUMPDEST SWAP3 SWAP2 POP POP JUMP JUMPDEST PUSH1 0x0 DUP1 PUSH1 0x0 PUSH1 0x60 DUP5 DUP7 SUB SLT ISZERO PUSH2 0xD32 JUMPI PUSH2 0xD31 PUSH2 0x92B JUMP JUMPDEST JUMPDEST PUSH1 0x0 DUP5 ADD CALLDATALOAD PUSH8 0xFFFFFFFFFFFFFFFF DUP2 GT ISZERO PUSH2 0xD50 JUMPI PUSH2 0xD4F PUSH2 0x930 JUMP JUMPDEST JUMPDEST PUSH2 0xD5C DUP7 DUP3 DUP8 ADD PUSH2 0xCBF JUMP JUMPDEST SWAP4 POP POP PUSH1 0x20 PUSH2 0xD6D DUP7 DUP3 DUP8 ADD PUSH2 0x956 JUMP JUMPDEST SWAP3 POP POP PUSH1 0x40 PUSH2 0xD7E DUP7 DUP3 DUP8 ADD PUSH2 0xD04 JUMP JUMPDEST SWAP2 POP POP SWAP3 POP SWAP3 POP SWAP3 JUMP JUMPDEST PUSH1 0x0 PUSH1 0xA0 DUP3 ADD SWAP1 POP PUSH2 0xD9D PUSH1 0x0 DUP4 ADD DUP9 PUSH2 0xA59 JUMP JUMPDEST PUSH2 0xDAA PUSH1 0x20 DUP4 ADD DUP8 PUSH2 0xA59 JUMP JUMPDEST PUSH2 0xDB7 PUSH1 0x40 DUP4 ADD DUP7 PUSH2 0xA59 JUMP JUMPDEST PUSH2 0xDC4 PUSH1 0x60 DUP4 ADD DUP6 PUSH2 0xA59 JUMP JUMPDEST PUSH2 0xDD1 PUSH1 0x80 DUP4 ADD DUP5 PUSH2 0xA83 JUMP JUMPDEST SWAP7 SWAP6 POP POP POP POP POP POP JUMP JUMPDEST PUSH32 0x4E487B7100000000000000000000000000000000000000000000000000000000 PUSH1 0x0 MSTORE PUSH1 0x12 PUSH1 0x4 MSTORE PUSH1 0x24 PUSH1 0x0 REVERT JUMPDEST PUSH32 0x4E487B7100000000000000000000000000000000000000000000000000000000 PUSH1 0x0 MSTORE PUSH1 0x11 PUSH1 0x4 MSTORE PUSH1 0x24 PUSH1 0x0 REVERT JUMPDEST PUSH1 0x0 PUSH2 0xE44 DUP3 PUSH2 0x935 JUMP JUMPDEST SWAP2 POP PUSH2 0xE4F DUP4 PUSH2 0x935 JUMP JUMPDEST SWAP3 POP DUP3 PUSH2 0xE5F JUMPI PUSH2 0xE5E PUSH2 0xDDB JUMP JUMPDEST JUMPDEST DUP3 DUP3 DIV SWAP1 POP SWAP3 SWAP2 POP POP JUMP JUMPDEST PUSH32 0x4E487B7100000000000000000000000000000000000000000000000000000000 PUSH1 0x0 MSTORE PUSH1 0x22 PUSH1 0x4 MSTORE PUSH1 0x24 PUSH1 0x0 REVERT JUMPDEST PUSH1 0x0 PUSH1 0x2 DUP3 DIV SWAP1 POP PUSH1 0x1 DUP3 AND DUP1 PUSH2 0xEB1 JUMPI PUSH1 0x7F DUP3 AND SWAP2 POP JUMPDEST PUSH1 0x20 DUP3 LT DUP2 SUB PUSH2 0xEC4 JUMPI PUSH2 0xEC3 PUSH2 0xE6A JUMP JUMPDEST JUMPDEST POP SWAP2 SWAP1 POP JUMP JUMPDEST PUSH1 0x0 PUSH2 0xED5 DUP3 PUSH2 0x935 JUMP JUMPDEST SWAP2 POP PUSH32 0xFFFFFFFFFFFFFFFFFFFFFFFFFFFFFFFFFFFFFFFFFFFFFFFFFFFFFFFFFFFFFFFF DUP3 SUB PUSH2 0xF07 JUMPI PUSH2 0xF06 PUSH2 0xE0A JUMP JUMPDEST JUMPDEST PUSH1 0x1 DUP3 ADD SWAP1 POP SWAP2 SWAP1 POP JUMP JUMPDEST PUSH1 0x0 DUP2 SWAP1 POP DUP2 PUSH1 0x0 MSTORE PUSH1 0x20 PUSH1 0x0 KECCAK256 SWAP1 POP SWAP2 SWAP1 POP JUMP JUMPDEST PUSH1 0x0 PUSH1 0x20 PUSH1 0x1F DUP4 ADD DIV SWAP1 POP SWAP2 SWAP1 POP JUMP JUMPDEST PUSH1 0x0 DUP3 DUP3 SHL SWAP1 POP SWAP3 SWAP2 POP POP JUMP JUMPDEST PUSH1 0x0 PUSH1 0x8 DUP4 MUL PUSH2 0xF74 PUSH32 0xFFFFFFFFFFFFFFFFFFFFFFFFFFFFFFFFFFFFFFFFFFFFFFFFFFFFFFFFFFFFFFFF DUP3 PUSH2 0xF37 JUMP JUMPDEST PUSH2 0xF7E DUP7 DUP4 PUSH2 0xF37 JUMP JUMPDEST SWAP6 POP DUP1 NOT DUP5 AND SWAP4 POP DUP1 DUP7 AND DUP5 OR SWAP3 POP POP POP SWAP4 SWAP3 POP POP POP JUMP JUMPDEST PUSH1 0x0 DUP2 SWAP1 POP SWAP2 SWAP1 POP JUMP JUMPDEST PUSH1 0x0 PUSH2 0xFBB PUSH2 0xFB6 PUSH2 0xFB1 DUP5 PUSH2 0x935 JUMP JUMPDEST PUSH2 0xF96 JUMP JUMPDEST PUSH2 0x935 JUMP JUMPDEST SWAP1 POP SWAP2 SWAP1 POP JUMP JUMPDEST PUSH1 0x0 DUP2 SWAP1 POP SWAP2 SWAP1 POP JUMP JUMPDEST PUSH2 0xFD5 DUP4 PUSH2 0xFA0 JUMP JUMPDEST PUSH2 0xFE9 PUSH2 0xFE1 DUP3 PUSH2 0xFC2 JUMP JUMPDEST DUP5 DUP5 SLOAD PUSH2 0xF44 JUMP JUMPDEST DUP3 SSTORE POP POP POP POP JUMP JUMPDEST PUSH1 0x0 SWAP1 JUMP JUMPDEST PUSH2 0xFFE PUSH2 0xFF1 JUMP JUMPDEST PUSH2 0x1009 DUP2 DUP5 DUP5 PUSH2 0xFCC JUMP JUMPDEST POP POP POP JUMP JUMPDEST JUMPDEST DUP2 DUP2 LT ISZERO PUSH2 0x102D JUMPI PUSH2 0x1022 PUSH1 0x0 DUP3 PUSH2 0xFF6 JUMP JUMPDEST PUSH1 0x1 DUP2 ADD SWAP1 POP PUSH2 0x100F JUMP JUMPDEST POP POP JUMP JUMPDEST PUSH1 0x1F DUP3 GT ISZERO PUSH2 0x1072 JUMPI PUSH2 0x1043 DUP2 PUSH2 0xF12 JUMP JUMPDEST PUSH2 0x104C DUP5 PUSH2 0xF27 JUMP JUMPDEST DUP2 ADD PUSH1 0x20 DUP6 LT ISZERO PUSH2 0x105B JUMPI DUP2 SWAP1 POP JUMPDEST PUSH2 0x106F PUSH2 0x1067 DUP6 PUSH2 0xF27 JUMP JUMPDEST DUP4 ADD DUP3 PUSH2 0x100E JUMP JUMPDEST POP POP JUMPDEST POP POP POP JUMP JUMPDEST PUSH1 0x0 DUP3 DUP3 SHR SWAP1 POP SWAP3 SWAP2 POP POP JUMP JUMPDEST PUSH1 0x0 PUSH2 0x1095 PUSH1 0x0 NOT DUP5 PUSH1 0x8 MUL PUSH2 0x1077 JUMP JUMPDEST NOT DUP1 DUP4 AND SWAP2 POP POP SWAP3 SWAP2 POP POP JUMP JUMPDEST PUSH1 0x0 PUSH2 0x10AE DUP4 DUP4 PUSH2 0x1084 JUMP JUMPDEST SWAP2 POP DUP3 PUSH1 0x2 MUL DUP3 OR SWAP1 POP SWAP3 SWAP2 POP POP JUMP JUMPDEST PUSH2 0x10C7 DUP3 PUSH2 0xAAD JUMP JUMPDEST PUSH8 0xFFFFFFFFFFFFFFFF DUP2 GT ISZERO PUSH2 0x10E0 JUMPI PUSH2 0x10DF PUSH2 0xBC2 JUMP JUMPDEST JUMPDEST PUSH2 0x10EA DUP3 SLOAD PUSH2 0xE99 JUMP JUMPDEST PUSH2 0x10F5 DUP3 DUP3 DUP6 PUSH2 0x1031 JUMP JUMPDEST PUSH1 0x0 PUSH1 0x20 SWAP1 POP PUSH1 0x1F DUP4 GT PUSH1 0x1 DUP2 EQ PUSH2 0x1128 JUMPI PUSH1 0x0 DUP5 ISZERO PUSH2 0x1116 JUMPI DUP3 DUP8 ADD MLOAD SWAP1 POP JUMPDEST PUSH2 0x1120 DUP6 DUP3 PUSH2 0x10A2 JUMP JUMPDEST DUP7 SSTORE POP PUSH2 0x1188 JUMP JUMPDEST PUSH1 0x1F NOT DUP5 AND PUSH2 0x1136 DUP7 PUSH2 0xF12 JUMP JUMPDEST PUSH1 0x0 JUMPDEST DUP3 DUP2 LT ISZERO PUSH2 0x115E JUMPI DUP5 DUP10 ADD MLOAD DUP3 SSTORE PUSH1 0x1 DUP3 ADD SWAP2 POP PUSH1 0x20 DUP6 ADD SWAP5 POP PUSH1 0x20 DUP2 ADD SWAP1 POP PUSH2 0x1139 JUMP JUMPDEST DUP7 DUP4 LT ISZERO PUSH2 0x117B JUMPI DUP5 DUP10 ADD MLOAD PUSH2 0x1177 PUSH1 0x1F DUP10 AND DUP3 PUSH2 0x1084 JUMP JUMPDEST DUP4 SSTORE POP JUMPDEST PUSH1 0x1 PUSH1 0x2 DUP9 MUL ADD DUP9 SSTORE POP POP POP JUMPDEST POP POP POP POP POP POP JUMP INVALID LOG2 PUSH5 0x6970667358 0x22 SLT KECCAK256 0xBE SWAP6 LOG4 SAR ISZERO ORIGIN 0x4C 0xEE PUSH15 0x3D7A538A157E2735D7AD613B3063D5 0xA9 RETURNDATACOPY MSIZE 0xDA SWAP4 0x4C 0xAF 0x4D PUSH5 0x736F6C6343 STOP ADDMOD GT STOP CALLER "},"gasEstimates":{"creation":{"codeDepositCost":"910000","executionCost":"infinite","totalCost":"infinite"},"external":{"Numofapprovers()":"2474","SummariseCampaign()":"infinite","approveRequest(uint256)":"infinite","contribute()":"53281","createRequest(string,uint256,address)":"infinite","finalizeRequest(uint256)":"infinite","getNumRequests()":"2526","hasAlreadyApproved(uint256)":"3058","isContributor(address)":"2924","manager()":"2581","requests(uint256)":"infinite"}},"methodIdentifiers":{"Numofapprovers()":"3e610fa6","SummariseCampaign()":"bb54f1b5","approveRequest(uint256)":"d7d1bbdb","contribute()":"d7bb99ba","createRequest(string,uint256,address)":"8a9cfd55","finalizeRequest(uint256)":"03441006","getNumRequests()":"4b8cd041","hasAlreadyApproved(uint256)":"eda6eb6c","isContributor(address)":"1d0d35f5","manager()":"481c6a75","requests(uint256)":"81d12c58"}},"storageLayout":{"storage":[{"astId":57,"contract":"Campaigns.sol:Campaign","label":"Numofapprovers","offset":0,"slot":"0","type":"t_uint256"},{"astId":59,"contract":"Campaigns.sol:Campaign","label":"numRequests","offset":0,"slot":"1","type":"t_uint256"},{"astId":64,"contract":"Campaigns.sol:Campaign","label":"requests","offset":0,"slot":"2","type":"t_mapping(t_uint256,t_struct(Request)55_storage)"},{"astId":66,"contract":"Campaigns.sol:Campaign","label":"manager","offset":0,"slot":"3","type":"t_address"},{"astId":68,"contract":"Campaigns.sol:Campaign","label":"minContribution","offset":0,"slot":"4","type":"t_uint256"},{"astId":72,"contract":"Campaigns.sol:Campaign","label":"approvers","offset":0,"slot":"5","type":"t_mapping(t_address,t_bool)"}],"types":{"t_address":{"encoding":"inplace","label":"address","numberOfBytes":"20"},"t_address_payable":{"encoding":"inplace","label":"address payable","numberOfBytes":"20"},"t_bool":{"encoding":"inplace","label":"bool","numberOfBytes":"1"},"t_mapping(t_address,t_bool)":{"encoding":"mapping","key":"t_address","label":"mapping(address => bool)","numberOfBytes":"32","value":"t_bool"},"t_mapping(t_uint256,t_struct(Request)55_storage)":{"encoding":"mapping","key":"t_uint256","label":"mapping(uint256 => struct Campaign.Request)","numberOfBytes":"32","value":"t_struct(Request)55_storage"},"t_string_storage":{"encoding":"bytes","label":"string","numberOfBytes":"32"},"t_struct(Request)55_storage":{"encoding":"inplace","label":"struct Campaign.Request","members":[{"astId":42,"contract":"Campaigns.sol:Campaign","label":"description","offset":0,"slot":"0","type":"t_string_storage"},{"astId":44,"contract":"Campaigns.sol:Campaign","label":"value","offset":0,"slot":"1","type":"t_uint256"},{"astId":46,"contract":"Campaigns.sol:Campaign","label":"recipient","offset":0,"slot":"2","type":"t_address_payable"},{"astId":48,"contract":"Campaigns.sol:Campaign","label":"complete","offset":20,"slot":"2","type":"t_bool"},{"astId":50,"contract":"Campaigns.sol:Campaign","label":"Numberofapprovals","offset":0,"slot":"3","type":"t_uint256"},{"astId":54,"contract":"Campaigns.sol:Campaign","label":"approvals","offset":0,"slot":"4","type":"t_mapping(t_address,t_bool)"}],"numberOfBytes":"160"},"t_uint256":{"encoding":"inplace","label":"uint256","numberOfBytes":"32"}}},"userdoc":{"kind":"user","methods":{},"version":1}}